{"abi":[{"inputs":[{"internalType":"string","name":"clientId","type":"string"},{"internalType":"string","name":"propertyId","type":"string"},{"internalType":"uint256","name":"value","type":"uint256"}],"name":"buy","outputs":[],"stateMutability":"nonpayable","type":"function"},{"inputs":[{"internalType":"uint256","name":"","type":"uint256"}],"name":"deploy","outputs":[{"internalType":"address","name":"","type":"address"}],"stateMutability":"view","type":"function"},{"inputs":[],"name":"get","outputs":[{"internalType":"address","name":"","type":"address"}],"stateMutability":"view","type":"function"}],"devdoc":{"kind":"dev","methods":{},"version":1},"evm":{"assembly":"    /* \"Auctioninfo.sol\":28:494  contract Factory {... */\n  mstore(0x40, 0x80)\n  callvalue\n  dup1\n  iszero\n  tag_1\n  jumpi\n  0x00\n  dup1\n  revert\ntag_1:\n  pop\n  dataSize(sub_0)\n  dup1\n  dataOffset(sub_0)\n  0x00\n  codecopy\n  0x00\n  return\nstop\n\nsub_0: assembly {\n        /* \"Auctioninfo.sol\":28:494  contract Factory {... */\n      mstore(0x40, 0x80)\n      callvalue\n      dup1\n      iszero\n      tag_1\n      jumpi\n      0x00\n      dup1\n      revert\n    tag_1:\n      pop\n      jumpi(tag_2, lt(calldatasize, 0x04))\n      shr(0xe0, calldataload(0x00))\n      dup1\n      0x0c4ba8d6\n      eq\n      tag_3\n      jumpi\n      dup1\n      0x6d4ce63c\n      eq\n      tag_4\n      jumpi\n      dup1\n      0xa5e38751\n      eq\n      tag_5\n      jumpi\n    tag_2:\n      0x00\n      dup1\n      revert\n        /* \"Auctioninfo.sol\":84:387  function buy (... */\n    tag_3:\n      tag_6\n      0x04\n      dup1\n      calldatasize\n      sub\n      dup2\n      add\n      swap1\n      tag_7\n      swap2\n      swap1\n      tag_8\n      jump\t// in\n    tag_7:\n      tag_9\n      jump\t// in\n    tag_6:\n      stop\n        /* \"Auctioninfo.sol\":395:491  function get() public view returns (address) {... */\n    tag_4:\n      tag_10\n      tag_11\n      jump\t// in\n    tag_10:\n      mload(0x40)\n      tag_12\n      swap2\n      swap1\n      tag_13\n      jump\t// in\n    tag_12:\n      mload(0x40)\n      dup1\n      swap2\n      sub\n      swap1\n      return\n        /* \"Auctioninfo.sol\":52:75  address[] public deploy */\n    tag_5:\n      tag_14\n      0x04\n      dup1\n      calldatasize\n      sub\n      dup2\n      add\n      swap1\n      tag_15\n      swap2\n      swap1\n      tag_16\n      jump\t// in\n    tag_15:\n      tag_17\n      jump\t// in\n    tag_14:\n      mload(0x40)\n      tag_18\n      swap2\n      swap1\n      tag_13\n      jump\t// in\n    tag_18:\n      mload(0x40)\n      dup1\n      swap2\n      sub\n      swap1\n      return\n        /* \"Auctioninfo.sol\":84:387  function buy (... */\n    tag_9:\n        /* \"Auctioninfo.sol\":220:239  address newCampaign */\n      0x00\n        /* \"Auctioninfo.sol\":279:287  clientId */\n      dup6\n      dup6\n        /* \"Auctioninfo.sol\":302:312  propertyId */\n      dup6\n      dup6\n        /* \"Auctioninfo.sol\":327:332  value */\n      dup6\n        /* \"Auctioninfo.sol\":250:343  new FundRaiser(... */\n      mload(0x40)\n      tag_20\n      swap1\n      tag_21\n      jump\t// in\n    tag_20:\n      tag_22\n      swap6\n      swap5\n      swap4\n      swap3\n      swap2\n      swap1\n      tag_23\n      jump\t// in\n    tag_22:\n      mload(0x40)\n      dup1\n      swap2\n      sub\n      swap1\n      0x00\n      create\n      dup1\n      iszero\n      dup1\n      iszero\n      tag_24\n      jumpi\n      returndatasize\n      0x00\n      dup1\n      returndatacopy\n      revert(0x00, returndatasize)\n    tag_24:\n      pop\n        /* \"Auctioninfo.sol\":220:344  address newCampaign = address(new FundRaiser(... */\n      swap1\n      pop\n        /* \"Auctioninfo.sol\":355:361  deploy */\n      0x00\n        /* \"Auctioninfo.sol\":367:378  newCampaign */\n      dup2\n        /* \"Auctioninfo.sol\":355:379  deploy.push(newCampaign) */\n      swap1\n      dup1\n      0x01\n      dup2\n      sload\n      add\n      dup1\n      dup3\n      sstore\n      dup1\n      swap2\n      pop\n      pop\n      0x01\n      swap1\n      sub\n      swap1\n      0x00\n      mstore\n      keccak256(0x00, 0x20)\n      add\n      0x00\n      swap1\n      swap2\n      swap1\n      swap2\n      swap1\n      swap2\n      0x0100\n      exp\n      dup2\n      sload\n      dup2\n      0xffffffffffffffffffffffffffffffffffffffff\n      mul\n      not\n      and\n      swap1\n      dup4\n      0xffffffffffffffffffffffffffffffffffffffff\n      and\n      mul\n      or\n      swap1\n      sstore\n      pop\n        /* \"Auctioninfo.sol\":209:387  {... */\n      pop\n        /* \"Auctioninfo.sol\":84:387  function buy (... */\n      pop\n      pop\n      pop\n      pop\n      pop\n      jump\t// out\n        /* \"Auctioninfo.sol\":395:491  function get() public view returns (address) {... */\n    tag_11:\n        /* \"Auctioninfo.sol\":431:438  address */\n      0x00\n        /* \"Auctioninfo.sol\":458:464  deploy */\n      dup1\n        /* \"Auctioninfo.sol\":481:482  1 */\n      0x01\n        /* \"Auctioninfo.sol\":465:471  deploy */\n      0x00\n        /* \"Auctioninfo.sol\":465:478  deploy.length */\n      dup1\n      sload\n      swap1\n      pop\n        /* \"Auctioninfo.sol\":465:482  deploy.length - 1 */\n      tag_27\n      swap2\n      swap1\n      tag_28\n      jump\t// in\n    tag_27:\n        /* \"Auctioninfo.sol\":458:483  deploy[deploy.length - 1] */\n      dup2\n      sload\n      dup2\n      lt\n      tag_29\n      jumpi\n      tag_30\n      tag_31\n      jump\t// in\n    tag_30:\n    tag_29:\n      swap1\n      0x00\n      mstore\n      keccak256(0x00, 0x20)\n      add\n      0x00\n      swap1\n      sload\n      swap1\n      0x0100\n      exp\n      swap1\n      div\n      0xffffffffffffffffffffffffffffffffffffffff\n      and\n        /* \"Auctioninfo.sol\":451:483  return deploy[deploy.length - 1] */\n      swap1\n      pop\n        /* \"Auctioninfo.sol\":395:491  function get() public view returns (address) {... */\n      swap1\n      jump\t// out\n        /* \"Auctioninfo.sol\":52:75  address[] public deploy */\n    tag_17:\n      0x00\n      dup2\n      dup2\n      sload\n      dup2\n      lt\n      tag_33\n      jumpi\n      0x00\n      dup1\n      revert\n    tag_33:\n      swap1\n      0x00\n      mstore\n      keccak256(0x00, 0x20)\n      add\n      0x00\n      swap2\n      pop\n      sload\n      swap1\n      0x0100\n      exp\n      swap1\n      div\n      0xffffffffffffffffffffffffffffffffffffffff\n      and\n      dup2\n      jump\t// out\n    tag_21:\n      dataSize(sub_0)\n      dup1\n      dataOffset(sub_0)\n      dup4\n      codecopy\n      add\n      swap1\n      jump\t// out\n        /* \"#utility.yul\":88:205   */\n    tag_36:\n        /* \"#utility.yul\":197:198   */\n      0x00\n        /* \"#utility.yul\":194:195   */\n      dup1\n        /* \"#utility.yul\":187:199   */\n      revert\n        /* \"#utility.yul\":211:328   */\n    tag_37:\n        /* \"#utility.yul\":320:321   */\n      0x00\n        /* \"#utility.yul\":317:318   */\n      dup1\n        /* \"#utility.yul\":310:322   */\n      revert\n        /* \"#utility.yul\":334:451   */\n    tag_38:\n        /* \"#utility.yul\":443:444   */\n      0x00\n        /* \"#utility.yul\":440:441   */\n      dup1\n        /* \"#utility.yul\":433:445   */\n      revert\n        /* \"#utility.yul\":457:574   */\n    tag_39:\n        /* \"#utility.yul\":566:567   */\n      0x00\n        /* \"#utility.yul\":563:564   */\n      dup1\n        /* \"#utility.yul\":556:568   */\n      revert\n        /* \"#utility.yul\":580:697   */\n    tag_40:\n        /* \"#utility.yul\":689:690   */\n      0x00\n        /* \"#utility.yul\":686:687   */\n      dup1\n        /* \"#utility.yul\":679:691   */\n      revert\n        /* \"#utility.yul\":717:1270   */\n    tag_41:\n        /* \"#utility.yul\":775:783   */\n      0x00\n        /* \"#utility.yul\":785:791   */\n      dup1\n        /* \"#utility.yul\":835:838   */\n      dup4\n        /* \"#utility.yul\":828:832   */\n      0x1f\n        /* \"#utility.yul\":820:826   */\n      dup5\n        /* \"#utility.yul\":816:833   */\n      add\n        /* \"#utility.yul\":812:839   */\n      slt\n        /* \"#utility.yul\":802:924   */\n      tag_62\n      jumpi\n        /* \"#utility.yul\":843:922   */\n      tag_63\n      tag_38\n      jump\t// in\n    tag_63:\n        /* \"#utility.yul\":802:924   */\n    tag_62:\n        /* \"#utility.yul\":956:962   */\n      dup3\n        /* \"#utility.yul\":943:963   */\n      calldataload\n        /* \"#utility.yul\":933:963   */\n      swap1\n      pop\n        /* \"#utility.yul\":986:1004   */\n      0xffffffffffffffff\n        /* \"#utility.yul\":978:984   */\n      dup2\n        /* \"#utility.yul\":975:1005   */\n      gt\n        /* \"#utility.yul\":972:1089   */\n      iszero\n      tag_64\n      jumpi\n        /* \"#utility.yul\":1008:1087   */\n      tag_65\n      tag_39\n      jump\t// in\n    tag_65:\n        /* \"#utility.yul\":972:1089   */\n    tag_64:\n        /* \"#utility.yul\":1122:1126   */\n      0x20\n        /* \"#utility.yul\":1114:1120   */\n      dup4\n        /* \"#utility.yul\":1110:1127   */\n      add\n        /* \"#utility.yul\":1098:1127   */\n      swap2\n      pop\n        /* \"#utility.yul\":1176:1179   */\n      dup4\n        /* \"#utility.yul\":1168:1172   */\n      0x01\n        /* \"#utility.yul\":1160:1166   */\n      dup3\n        /* \"#utility.yul\":1156:1173   */\n      mul\n        /* \"#utility.yul\":1146:1154   */\n      dup4\n        /* \"#utility.yul\":1142:1174   */\n      add\n        /* \"#utility.yul\":1139:1180   */\n      gt\n        /* \"#utility.yul\":1136:1264   */\n      iszero\n      tag_66\n      jumpi\n        /* \"#utility.yul\":1183:1262   */\n      tag_67\n      tag_40\n      jump\t// in\n    tag_67:\n        /* \"#utility.yul\":1136:1264   */\n    tag_66:\n        /* \"#utility.yul\":717:1270   */\n      swap3\n      pop\n      swap3\n      swap1\n      pop\n      jump\t// out\n        /* \"#utility.yul\":1276:1353   */\n    tag_42:\n        /* \"#utility.yul\":1313:1320   */\n      0x00\n        /* \"#utility.yul\":1342:1347   */\n      dup2\n        /* \"#utility.yul\":1331:1347   */\n      swap1\n      pop\n        /* \"#utility.yul\":1276:1353   */\n      swap2\n      swap1\n      pop\n      jump\t// out\n        /* \"#utility.yul\":1359:1481   */\n    tag_43:\n        /* \"#utility.yul\":1432:1456   */\n      tag_70\n        /* \"#utility.yul\":1450:1455   */\n      dup2\n        /* \"#utility.yul\":1432:1456   */\n      tag_42\n      jump\t// in\n    tag_70:\n        /* \"#utility.yul\":1425:1430   */\n      dup2\n        /* \"#utility.yul\":1422:1457   */\n      eq\n        /* \"#utility.yul\":1412:1475   */\n      tag_71\n      jumpi\n        /* \"#utility.yul\":1471:1472   */\n      0x00\n        /* \"#utility.yul\":1468:1469   */\n      dup1\n        /* \"#utility.yul\":1461:1473   */\n      revert\n        /* \"#utility.yul\":1412:1475   */\n    tag_71:\n        /* \"#utility.yul\":1359:1481   */\n      pop\n      jump\t// out\n        /* \"#utility.yul\":1487:1626   */\n    tag_44:\n        /* \"#utility.yul\":1533:1538   */\n      0x00\n        /* \"#utility.yul\":1571:1577   */\n      dup2\n        /* \"#utility.yul\":1558:1578   */\n      calldataload\n        /* \"#utility.yul\":1549:1578   */\n      swap1\n      pop\n        /* \"#utility.yul\":1587:1620   */\n      tag_73\n        /* \"#utility.yul\":1614:1619   */\n      dup2\n        /* \"#utility.yul\":1587:1620   */\n      tag_43\n      jump\t// in\n    tag_73:\n        /* \"#utility.yul\":1487:1626   */\n      swap3\n      swap2\n      pop\n      pop\n      jump\t// out\n        /* \"#utility.yul\":1632:2651   */\n    tag_8:\n        /* \"#utility.yul\":1733:1739   */\n      0x00\n        /* \"#utility.yul\":1741:1747   */\n      dup1\n        /* \"#utility.yul\":1749:1755   */\n      0x00\n        /* \"#utility.yul\":1757:1763   */\n      dup1\n        /* \"#utility.yul\":1765:1771   */\n      0x00\n        /* \"#utility.yul\":1814:1816   */\n      0x60\n        /* \"#utility.yul\":1802:1811   */\n      dup7\n        /* \"#utility.yul\":1793:1800   */\n      dup9\n        /* \"#utility.yul\":1789:1812   */\n      sub\n        /* \"#utility.yul\":1785:1817   */\n      slt\n        /* \"#utility.yul\":1782:1901   */\n      iszero\n      tag_75\n      jumpi\n        /* \"#utility.yul\":1820:1899   */\n      tag_76\n      tag_36\n      jump\t// in\n    tag_76:\n        /* \"#utility.yul\":1782:1901   */\n    tag_75:\n        /* \"#utility.yul\":1968:1969   */\n      0x00\n        /* \"#utility.yul\":1957:1966   */\n      dup7\n        /* \"#utility.yul\":1953:1970   */\n      add\n        /* \"#utility.yul\":1940:1971   */\n      calldataload\n        /* \"#utility.yul\":1998:2016   */\n      0xffffffffffffffff\n        /* \"#utility.yul\":1990:1996   */\n      dup2\n        /* \"#utility.yul\":1987:2017   */\n      gt\n        /* \"#utility.yul\":1984:2101   */\n      iszero\n      tag_77\n      jumpi\n        /* \"#utility.yul\":2020:2099   */\n      tag_78\n      tag_37\n      jump\t// in\n    tag_78:\n        /* \"#utility.yul\":1984:2101   */\n    tag_77:\n        /* \"#utility.yul\":2133:2198   */\n      tag_79\n        /* \"#utility.yul\":2190:2197   */\n      dup9\n        /* \"#utility.yul\":2181:2187   */\n      dup3\n        /* \"#utility.yul\":2170:2179   */\n      dup10\n        /* \"#utility.yul\":2166:2188   */\n      add\n        /* \"#utility.yul\":2133:2198   */\n      tag_41\n      jump\t// in\n    tag_79:\n        /* \"#utility.yul\":2115:2198   */\n      swap6\n      pop\n      swap6\n      pop\n        /* \"#utility.yul\":1911:2208   */\n      pop\n        /* \"#utility.yul\":2275:2277   */\n      0x20\n        /* \"#utility.yul\":2264:2273   */\n      dup7\n        /* \"#utility.yul\":2260:2278   */\n      add\n        /* \"#utility.yul\":2247:2279   */\n      calldataload\n        /* \"#utility.yul\":2306:2324   */\n      0xffffffffffffffff\n        /* \"#utility.yul\":2298:2304   */\n      dup2\n        /* \"#utility.yul\":2295:2325   */\n      gt\n        /* \"#utility.yul\":2292:2409   */\n      iszero\n      tag_80\n      jumpi\n        /* \"#utility.yul\":2328:2407   */\n      tag_81\n      tag_37\n      jump\t// in\n    tag_81:\n        /* \"#utility.yul\":2292:2409   */\n    tag_80:\n        /* \"#utility.yul\":2441:2506   */\n      tag_82\n        /* \"#utility.yul\":2498:2505   */\n      dup9\n        /* \"#utility.yul\":2489:2495   */\n      dup3\n        /* \"#utility.yul\":2478:2487   */\n      dup10\n        /* \"#utility.yul\":2474:2496   */\n      add\n        /* \"#utility.yul\":2441:2506   */\n      tag_41\n      jump\t// in\n    tag_82:\n        /* \"#utility.yul\":2423:2506   */\n      swap4\n      pop\n      swap4\n      pop\n        /* \"#utility.yul\":2218:2516   */\n      pop\n        /* \"#utility.yul\":2555:2557   */\n      0x40\n        /* \"#utility.yul\":2581:2634   */\n      tag_83\n        /* \"#utility.yul\":2626:2633   */\n      dup9\n        /* \"#utility.yul\":2617:2623   */\n      dup3\n        /* \"#utility.yul\":2606:2615   */\n      dup10\n        /* \"#utility.yul\":2602:2624   */\n      add\n        /* \"#utility.yul\":2581:2634   */\n      tag_44\n      jump\t// in\n    tag_83:\n        /* \"#utility.yul\":2571:2634   */\n      swap2\n      pop\n        /* \"#utility.yul\":2526:2644   */\n      pop\n        /* \"#utility.yul\":1632:2651   */\n      swap3\n      swap6\n      pop\n      swap3\n      swap6\n      swap1\n      swap4\n      pop\n      jump\t// out\n        /* \"#utility.yul\":2657:2783   */\n    tag_45:\n        /* \"#utility.yul\":2694:2701   */\n      0x00\n        /* \"#utility.yul\":2734:2776   */\n      0xffffffffffffffffffffffffffffffffffffffff\n        /* \"#utility.yul\":2727:2732   */\n      dup3\n        /* \"#utility.yul\":2723:2777   */\n      and\n        /* \"#utility.yul\":2712:2777   */\n      swap1\n      pop\n        /* \"#utility.yul\":2657:2783   */\n      swap2\n      swap1\n      pop\n      jump\t// out\n        /* \"#utility.yul\":2789:2885   */\n    tag_46:\n        /* \"#utility.yul\":2826:2833   */\n      0x00\n        /* \"#utility.yul\":2855:2879   */\n      tag_86\n        /* \"#utility.yul\":2873:2878   */\n      dup3\n        /* \"#utility.yul\":2855:2879   */\n      tag_45\n      jump\t// in\n    tag_86:\n        /* \"#utility.yul\":2844:2879   */\n      swap1\n      pop\n        /* \"#utility.yul\":2789:2885   */\n      swap2\n      swap1\n      pop\n      jump\t// out\n        /* \"#utility.yul\":2891:3009   */\n    tag_47:\n        /* \"#utility.yul\":2978:3002   */\n      tag_88\n        /* \"#utility.yul\":2996:3001   */\n      dup2\n        /* \"#utility.yul\":2978:3002   */\n      tag_46\n      jump\t// in\n    tag_88:\n        /* \"#utility.yul\":2973:2976   */\n      dup3\n        /* \"#utility.yul\":2966:3003   */\n      mstore\n        /* \"#utility.yul\":2891:3009   */\n      pop\n      pop\n      jump\t// out\n        /* \"#utility.yul\":3015:3237   */\n    tag_13:\n        /* \"#utility.yul\":3108:3112   */\n      0x00\n        /* \"#utility.yul\":3146:3148   */\n      0x20\n        /* \"#utility.yul\":3135:3144   */\n      dup3\n        /* \"#utility.yul\":3131:3149   */\n      add\n        /* \"#utility.yul\":3123:3149   */\n      swap1\n      pop\n        /* \"#utility.yul\":3159:3230   */\n      tag_90\n        /* \"#utility.yul\":3227:3228   */\n      0x00\n        /* \"#utility.yul\":3216:3225   */\n      dup4\n        /* \"#utility.yul\":3212:3229   */\n      add\n        /* \"#utility.yul\":3203:3209   */\n      dup5\n        /* \"#utility.yul\":3159:3230   */\n      tag_47\n      jump\t// in\n    tag_90:\n        /* \"#utility.yul\":3015:3237   */\n      swap3\n      swap2\n      pop\n      pop\n      jump\t// out\n        /* \"#utility.yul\":3243:3572   */\n    tag_16:\n        /* \"#utility.yul\":3302:3308   */\n      0x00\n        /* \"#utility.yul\":3351:3353   */\n      0x20\n        /* \"#utility.yul\":3339:3348   */\n      dup3\n        /* \"#utility.yul\":3330:3337   */\n      dup5\n        /* \"#utility.yul\":3326:3349   */\n      sub\n        /* \"#utility.yul\":3322:3354   */\n      slt\n        /* \"#utility.yul\":3319:3438   */\n      iszero\n      tag_92\n      jumpi\n        /* \"#utility.yul\":3357:3436   */\n      tag_93\n      tag_36\n      jump\t// in\n    tag_93:\n        /* \"#utility.yul\":3319:3438   */\n    tag_92:\n        /* \"#utility.yul\":3477:3478   */\n      0x00\n        /* \"#utility.yul\":3502:3555   */\n      tag_94\n        /* \"#utility.yul\":3547:3554   */\n      dup5\n        /* \"#utility.yul\":3538:3544   */\n      dup3\n        /* \"#utility.yul\":3527:3536   */\n      dup6\n        /* \"#utility.yul\":3523:3545   */\n      add\n        /* \"#utility.yul\":3502:3555   */\n      tag_44\n      jump\t// in\n    tag_94:\n        /* \"#utility.yul\":3492:3555   */\n      swap2\n      pop\n        /* \"#utility.yul\":3448:3565   */\n      pop\n        /* \"#utility.yul\":3243:3572   */\n      swap3\n      swap2\n      pop\n      pop\n      jump\t// out\n        /* \"#utility.yul\":3578:3747   */\n    tag_48:\n        /* \"#utility.yul\":3662:3673   */\n      0x00\n        /* \"#utility.yul\":3696:3702   */\n      dup3\n        /* \"#utility.yul\":3691:3694   */\n      dup3\n        /* \"#utility.yul\":3684:3703   */\n      mstore\n        /* \"#utility.yul\":3736:3740   */\n      0x20\n        /* \"#utility.yul\":3731:3734   */\n      dup3\n        /* \"#utility.yul\":3727:3741   */\n      add\n        /* \"#utility.yul\":3712:3741   */\n      swap1\n      pop\n        /* \"#utility.yul\":3578:3747   */\n      swap3\n      swap2\n      pop\n      pop\n      jump\t// out\n        /* \"#utility.yul\":3753:3907   */\n    tag_49:\n        /* \"#utility.yul\":3837:3843   */\n      dup3\n        /* \"#utility.yul\":3832:3835   */\n      dup2\n        /* \"#utility.yul\":3827:3830   */\n      dup4\n        /* \"#utility.yul\":3814:3844   */\n      calldatacopy\n        /* \"#utility.yul\":3899:3900   */\n      0x00\n        /* \"#utility.yul\":3890:3896   */\n      dup4\n        /* \"#utility.yul\":3885:3888   */\n      dup4\n        /* \"#utility.yul\":3881:3897   */\n      add\n        /* \"#utility.yul\":3874:3901   */\n      mstore\n        /* \"#utility.yul\":3753:3907   */\n      pop\n      pop\n      pop\n      jump\t// out\n        /* \"#utility.yul\":3913:4015   */\n    tag_50:\n        /* \"#utility.yul\":3954:3960   */\n      0x00\n        /* \"#utility.yul\":4005:4007   */\n      0x1f\n        /* \"#utility.yul\":4001:4008   */\n      not\n        /* \"#utility.yul\":3996:3998   */\n      0x1f\n        /* \"#utility.yul\":3989:3994   */\n      dup4\n        /* \"#utility.yul\":3985:3999   */\n      add\n        /* \"#utility.yul\":3981:4009   */\n      and\n        /* \"#utility.yul\":3971:4009   */\n      swap1\n      pop\n        /* \"#utility.yul\":3913:4015   */\n      swap2\n      swap1\n      pop\n      jump\t// out\n        /* \"#utility.yul\":4045:4349   */\n    tag_51:\n        /* \"#utility.yul\":4143:4146   */\n      0x00\n        /* \"#utility.yul\":4164:4235   */\n      tag_99\n        /* \"#utility.yul\":4228:4234   */\n      dup4\n        /* \"#utility.yul\":4223:4226   */\n      dup6\n        /* \"#utility.yul\":4164:4235   */\n      tag_48\n      jump\t// in\n    tag_99:\n        /* \"#utility.yul\":4157:4235   */\n      swap4\n      pop\n        /* \"#utility.yul\":4245:4288   */\n      tag_100\n        /* \"#utility.yul\":4281:4287   */\n      dup4\n        /* \"#utility.yul\":4276:4279   */\n      dup6\n        /* \"#utility.yul\":4269:4274   */\n      dup5\n        /* \"#utility.yul\":4245:4288   */\n      tag_49\n      jump\t// in\n    tag_100:\n        /* \"#utility.yul\":4313:4342   */\n      tag_101\n        /* \"#utility.yul\":4335:4341   */\n      dup4\n        /* \"#utility.yul\":4313:4342   */\n      tag_50\n      jump\t// in\n    tag_101:\n        /* \"#utility.yul\":4308:4311   */\n      dup5\n        /* \"#utility.yul\":4304:4343   */\n      add\n        /* \"#utility.yul\":4297:4343   */\n      swap1\n      pop\n        /* \"#utility.yul\":4045:4349   */\n      swap4\n      swap3\n      pop\n      pop\n      pop\n      jump\t// out\n        /* \"#utility.yul\":4355:4473   */\n    tag_52:\n        /* \"#utility.yul\":4442:4466   */\n      tag_103\n        /* \"#utility.yul\":4460:4465   */\n      dup2\n        /* \"#utility.yul\":4442:4466   */\n      tag_42\n      jump\t// in\n    tag_103:\n        /* \"#utility.yul\":4437:4440   */\n      dup3\n        /* \"#utility.yul\":4430:4467   */\n      mstore\n        /* \"#utility.yul\":4355:4473   */\n      pop\n      pop\n      jump\t// out\n        /* \"#utility.yul\":4479:5143   */\n    tag_23:\n        /* \"#utility.yul\":4688:4692   */\n      0x00\n        /* \"#utility.yul\":4726:4728   */\n      0x60\n        /* \"#utility.yul\":4715:4724   */\n      dup3\n        /* \"#utility.yul\":4711:4729   */\n      add\n        /* \"#utility.yul\":4703:4729   */\n      swap1\n      pop\n        /* \"#utility.yul\":4775:4784   */\n      dup2\n        /* \"#utility.yul\":4769:4773   */\n      dup2\n        /* \"#utility.yul\":4765:4785   */\n      sub\n        /* \"#utility.yul\":4761:4762   */\n      0x00\n        /* \"#utility.yul\":4750:4759   */\n      dup4\n        /* \"#utility.yul\":4746:4763   */\n      add\n        /* \"#utility.yul\":4739:4786   */\n      mstore\n        /* \"#utility.yul\":4803:4891   */\n      tag_105\n        /* \"#utility.yul\":4886:4890   */\n      dup2\n        /* \"#utility.yul\":4877:4883   */\n      dup8\n        /* \"#utility.yul\":4869:4875   */\n      dup10\n        /* \"#utility.yul\":4803:4891   */\n      tag_51\n      jump\t// in\n    tag_105:\n        /* \"#utility.yul\":4795:4891   */\n      swap1\n      pop\n        /* \"#utility.yul\":4938:4947   */\n      dup2\n        /* \"#utility.yul\":4932:4936   */\n      dup2\n        /* \"#utility.yul\":4928:4948   */\n      sub\n        /* \"#utility.yul\":4923:4925   */\n      0x20\n        /* \"#utility.yul\":4912:4921   */\n      dup4\n        /* \"#utility.yul\":4908:4926   */\n      add\n        /* \"#utility.yul\":4901:4949   */\n      mstore\n        /* \"#utility.yul\":4966:5054   */\n      tag_106\n        /* \"#utility.yul\":5049:5053   */\n      dup2\n        /* \"#utility.yul\":5040:5046   */\n      dup6\n        /* \"#utility.yul\":5032:5038   */\n      dup8\n        /* \"#utility.yul\":4966:5054   */\n      tag_51\n      jump\t// in\n    tag_106:\n        /* \"#utility.yul\":4958:5054   */\n      swap1\n      pop\n        /* \"#utility.yul\":5064:5136   */\n      tag_107\n        /* \"#utility.yul\":5132:5134   */\n      0x40\n        /* \"#utility.yul\":5121:5130   */\n      dup4\n        /* \"#utility.yul\":5117:5135   */\n      add\n        /* \"#utility.yul\":5108:5114   */\n      dup5\n        /* \"#utility.yul\":5064:5136   */\n      tag_52\n      jump\t// in\n    tag_107:\n        /* \"#utility.yul\":4479:5143   */\n      swap7\n      swap6\n      pop\n      pop\n      pop\n      pop\n      pop\n      pop\n      jump\t// out\n        /* \"#utility.yul\":5149:5329   */\n    tag_53:\n        /* \"#utility.yul\":5197:5274   */\n      0x4e487b7100000000000000000000000000000000000000000000000000000000\n        /* \"#utility.yul\":5194:5195   */\n      0x00\n        /* \"#utility.yul\":5187:5275   */\n      mstore\n        /* \"#utility.yul\":5294:5298   */\n      0x11\n        /* \"#utility.yul\":5291:5292   */\n      0x04\n        /* \"#utility.yul\":5284:5299   */\n      mstore\n        /* \"#utility.yul\":5318:5322   */\n      0x24\n        /* \"#utility.yul\":5315:5316   */\n      0x00\n        /* \"#utility.yul\":5308:5323   */\n      revert\n        /* \"#utility.yul\":5335:5526   */\n    tag_28:\n        /* \"#utility.yul\":5375:5379   */\n      0x00\n        /* \"#utility.yul\":5395:5415   */\n      tag_110\n        /* \"#utility.yul\":5413:5414   */\n      dup3\n        /* \"#utility.yul\":5395:5415   */\n      tag_42\n      jump\t// in\n    tag_110:\n        /* \"#utility.yul\":5390:5415   */\n      swap2\n      pop\n        /* \"#utility.yul\":5429:5449   */\n      tag_111\n        /* \"#utility.yul\":5447:5448   */\n      dup4\n        /* \"#utility.yul\":5429:5449   */\n      tag_42\n      jump\t// in\n    tag_111:\n        /* \"#utility.yul\":5424:5449   */\n      swap3\n      pop\n        /* \"#utility.yul\":5468:5469   */\n      dup3\n        /* \"#utility.yul\":5465:5466   */\n      dup3\n        /* \"#utility.yul\":5462:5470   */\n      lt\n        /* \"#utility.yul\":5459:5493   */\n      iszero\n      tag_112\n      jumpi\n        /* \"#utility.yul\":5473:5491   */\n      tag_113\n      tag_53\n      jump\t// in\n    tag_113:\n        /* \"#utility.yul\":5459:5493   */\n    tag_112:\n        /* \"#utility.yul\":5518:5519   */\n      dup3\n        /* \"#utility.yul\":5515:5516   */\n      dup3\n        /* \"#utility.yul\":5511:5520   */\n      sub\n        /* \"#utility.yul\":5503:5520   */\n      swap1\n      pop\n        /* \"#utility.yul\":5335:5526   */\n      swap3\n      swap2\n      pop\n      pop\n      jump\t// out\n        /* \"#utility.yul\":5532:5712   */\n    tag_31:\n        /* \"#utility.yul\":5580:5657   */\n      0x4e487b7100000000000000000000000000000000000000000000000000000000\n        /* \"#utility.yul\":5577:5578   */\n      0x00\n        /* \"#utility.yul\":5570:5658   */\n      mstore\n        /* \"#utility.yul\":5677:5681   */\n      0x32\n        /* \"#utility.yul\":5674:5675   */\n      0x04\n        /* \"#utility.yul\":5667:5682   */\n      mstore\n        /* \"#utility.yul\":5701:5705   */\n      0x24\n        /* \"#utility.yul\":5698:5699   */\n      0x00\n        /* \"#utility.yul\":5691:5706   */\n      revert\n    stop\n\n    sub_0: assembly {\n            /* \"Auctioninfo.sol\":498:1012  contract FundRaiser {... */\n          mstore(0x40, 0x80)\n            /* \"Auctioninfo.sol\":614:782  constructor(... */\n          callvalue\n          dup1\n          iszero\n          tag_1\n          jumpi\n          0x00\n          dup1\n          revert\n        tag_1:\n          pop\n          mload(0x40)\n          sub(codesize, bytecodeSize)\n          dup1\n          bytecodeSize\n          dup4\n          codecopy\n          dup2\n          dup2\n          add\n          0x40\n          mstore\n          dup2\n          add\n          swap1\n          tag_2\n          swap2\n          swap1\n          tag_3\n          jump\t// in\n        tag_2:\n            /* \"Auctioninfo.sol\":728:729  n */\n          dup3\n            /* \"Auctioninfo.sol\":717:725  clientId */\n          0x00\n            /* \"Auctioninfo.sol\":717:729  clientId = n */\n          swap1\n          dup1\n          mload\n          swap1\n          0x20\n          add\n          swap1\n          tag_6\n          swap3\n          swap2\n          swap1\n          tag_7\n          jump\t// in\n        tag_6:\n          pop\n            /* \"Auctioninfo.sol\":753:754  i */\n          dup2\n            /* \"Auctioninfo.sol\":740:750  propertyId */\n          0x01\n            /* \"Auctioninfo.sol\":740:754  propertyId = i */\n          swap1\n          dup1\n          mload\n          swap1\n          0x20\n          add\n          swap1\n          tag_8\n          swap3\n          swap2\n          swap1\n          tag_7\n          jump\t// in\n        tag_8:\n          pop\n            /* \"Auctioninfo.sol\":773:774  v */\n          dup1\n            /* \"Auctioninfo.sol\":765:770  value */\n          0x02\n            /* \"Auctioninfo.sol\":765:774  value = v */\n          dup2\n          swap1\n          sstore\n          pop\n            /* \"Auctioninfo.sol\":614:782  constructor(... */\n          pop\n          pop\n          pop\n            /* \"Auctioninfo.sol\":498:1012  contract FundRaiser {... */\n          jump(tag_9)\n        tag_7:\n          dup3\n          dup1\n          sload\n          tag_10\n          swap1\n          tag_11\n          jump\t// in\n        tag_10:\n          swap1\n          0x00\n          mstore\n          keccak256(0x00, 0x20)\n          swap1\n          0x1f\n          add\n          0x20\n          swap1\n          div\n          dup2\n          add\n          swap3\n          dup3\n          tag_13\n          jumpi\n          0x00\n          dup6\n          sstore\n          jump(tag_12)\n        tag_13:\n          dup3\n          0x1f\n          lt\n          tag_14\n          jumpi\n          dup1\n          mload\n          not(0xff)\n          and\n          dup4\n          dup1\n          add\n          or\n          dup6\n          sstore\n          jump(tag_12)\n        tag_14:\n          dup3\n          dup1\n          add\n          0x01\n          add\n          dup6\n          sstore\n          dup3\n          iszero\n          tag_12\n          jumpi\n          swap2\n          dup3\n          add\n        tag_15:\n          dup3\n          dup2\n          gt\n          iszero\n          tag_16\n          jumpi\n          dup3\n          mload\n          dup3\n          sstore\n          swap2\n          0x20\n          add\n          swap2\n          swap1\n          0x01\n          add\n          swap1\n          jump(tag_15)\n        tag_16:\n        tag_12:\n          pop\n          swap1\n          pop\n          tag_17\n          swap2\n          swap1\n          tag_18\n          jump\t// in\n        tag_17:\n          pop\n          swap1\n          jump\t// out\n        tag_18:\n        tag_19:\n          dup1\n          dup3\n          gt\n          iszero\n          tag_20\n          jumpi\n          0x00\n          dup2\n          0x00\n          swap1\n          sstore\n          pop\n          0x01\n          add\n          jump(tag_19)\n        tag_20:\n          pop\n          swap1\n          jump\t// out\n            /* \"#utility.yul\":7:82   */\n        tag_21:\n            /* \"#utility.yul\":40:46   */\n          0x00\n            /* \"#utility.yul\":73:75   */\n          0x40\n            /* \"#utility.yul\":67:76   */\n          mload\n            /* \"#utility.yul\":57:76   */\n          swap1\n          pop\n            /* \"#utility.yul\":7:82   */\n          swap1\n          jump\t// out\n            /* \"#utility.yul\":88:205   */\n        tag_22:\n            /* \"#utility.yul\":197:198   */\n          0x00\n            /* \"#utility.yul\":194:195   */\n          dup1\n            /* \"#utility.yul\":187:199   */\n          revert\n            /* \"#utility.yul\":211:328   */\n        tag_23:\n            /* \"#utility.yul\":320:321   */\n          0x00\n            /* \"#utility.yul\":317:318   */\n          dup1\n            /* \"#utility.yul\":310:322   */\n          revert\n            /* \"#utility.yul\":334:451   */\n        tag_24:\n            /* \"#utility.yul\":443:444   */\n          0x00\n            /* \"#utility.yul\":440:441   */\n          dup1\n            /* \"#utility.yul\":433:445   */\n          revert\n            /* \"#utility.yul\":457:574   */\n        tag_25:\n            /* \"#utility.yul\":566:567   */\n          0x00\n            /* \"#utility.yul\":563:564   */\n          dup1\n            /* \"#utility.yul\":556:568   */\n          revert\n            /* \"#utility.yul\":580:682   */\n        tag_26:\n            /* \"#utility.yul\":621:627   */\n          0x00\n            /* \"#utility.yul\":672:674   */\n          0x1f\n            /* \"#utility.yul\":668:675   */\n          not\n            /* \"#utility.yul\":663:665   */\n          0x1f\n            /* \"#utility.yul\":656:661   */\n          dup4\n            /* \"#utility.yul\":652:666   */\n          add\n            /* \"#utility.yul\":648:676   */\n          and\n            /* \"#utility.yul\":638:676   */\n          swap1\n          pop\n            /* \"#utility.yul\":580:682   */\n          swap2\n          swap1\n          pop\n          jump\t// out\n            /* \"#utility.yul\":688:868   */\n        tag_27:\n            /* \"#utility.yul\":736:813   */\n          0x4e487b7100000000000000000000000000000000000000000000000000000000\n            /* \"#utility.yul\":733:734   */\n          0x00\n            /* \"#utility.yul\":726:814   */\n          mstore\n            /* \"#utility.yul\":833:837   */\n          0x41\n            /* \"#utility.yul\":830:831   */\n          0x04\n            /* \"#utility.yul\":823:838   */\n          mstore\n            /* \"#utility.yul\":857:861   */\n          0x24\n            /* \"#utility.yul\":854:855   */\n          0x00\n            /* \"#utility.yul\":847:862   */\n          revert\n            /* \"#utility.yul\":874:1155   */\n        tag_28:\n            /* \"#utility.yul\":957:984   */\n          tag_47\n            /* \"#utility.yul\":979:983   */\n          dup3\n            /* \"#utility.yul\":957:984   */\n          tag_26\n          jump\t// in\n        tag_47:\n            /* \"#utility.yul\":949:955   */\n          dup2\n            /* \"#utility.yul\":945:985   */\n          add\n            /* \"#utility.yul\":1087:1093   */\n          dup2\n            /* \"#utility.yul\":1075:1085   */\n          dup2\n            /* \"#utility.yul\":1072:1094   */\n          lt\n            /* \"#utility.yul\":1051:1069   */\n          0xffffffffffffffff\n            /* \"#utility.yul\":1039:1049   */\n          dup3\n            /* \"#utility.yul\":1036:1070   */\n          gt\n            /* \"#utility.yul\":1033:1095   */\n          or\n            /* \"#utility.yul\":1030:1118   */\n          iszero\n          tag_48\n          jumpi\n            /* \"#utility.yul\":1098:1116   */\n          tag_49\n          tag_27\n          jump\t// in\n        tag_49:\n            /* \"#utility.yul\":1030:1118   */\n        tag_48:\n            /* \"#utility.yul\":1138:1148   */\n          dup1\n            /* \"#utility.yul\":1134:1136   */\n          0x40\n            /* \"#utility.yul\":1127:1149   */\n          mstore\n            /* \"#utility.yul\":917:1155   */\n          pop\n            /* \"#utility.yul\":874:1155   */\n          pop\n          pop\n          jump\t// out\n            /* \"#utility.yul\":1161:1290   */\n        tag_29:\n            /* \"#utility.yul\":1195:1201   */\n          0x00\n            /* \"#utility.yul\":1222:1242   */\n          tag_51\n          tag_21\n          jump\t// in\n        tag_51:\n            /* \"#utility.yul\":1212:1242   */\n          swap1\n          pop\n            /* \"#utility.yul\":1251:1284   */\n          tag_52\n            /* \"#utility.yul\":1279:1283   */\n          dup3\n            /* \"#utility.yul\":1271:1277   */\n          dup3\n            /* \"#utility.yul\":1251:1284   */\n          tag_28\n          jump\t// in\n        tag_52:\n            /* \"#utility.yul\":1161:1290   */\n          swap2\n          swap1\n          pop\n          jump\t// out\n            /* \"#utility.yul\":1296:1604   */\n        tag_30:\n            /* \"#utility.yul\":1358:1362   */\n          0x00\n            /* \"#utility.yul\":1448:1466   */\n          0xffffffffffffffff\n            /* \"#utility.yul\":1440:1446   */\n          dup3\n            /* \"#utility.yul\":1437:1467   */\n          gt\n            /* \"#utility.yul\":1434:1490   */\n          iszero\n          tag_54\n          jumpi\n            /* \"#utility.yul\":1470:1488   */\n          tag_55\n          tag_27\n          jump\t// in\n        tag_55:\n            /* \"#utility.yul\":1434:1490   */\n        tag_54:\n            /* \"#utility.yul\":1508:1537   */\n          tag_56\n            /* \"#utility.yul\":1530:1536   */\n          dup3\n            /* \"#utility.yul\":1508:1537   */\n          tag_26\n          jump\t// in\n        tag_56:\n            /* \"#utility.yul\":1500:1537   */\n          swap1\n          pop\n            /* \"#utility.yul\":1592:1596   */\n          0x20\n            /* \"#utility.yul\":1586:1590   */\n          dup2\n            /* \"#utility.yul\":1582:1597   */\n          add\n            /* \"#utility.yul\":1574:1597   */\n          swap1\n          pop\n            /* \"#utility.yul\":1296:1604   */\n          swap2\n          swap1\n          pop\n          jump\t// out\n            /* \"#utility.yul\":1610:1917   */\n        tag_31:\n            /* \"#utility.yul\":1678:1679   */\n          0x00\n            /* \"#utility.yul\":1688:1801   */\n        tag_58:\n            /* \"#utility.yul\":1702:1708   */\n          dup4\n            /* \"#utility.yul\":1699:1700   */\n          dup2\n            /* \"#utility.yul\":1696:1709   */\n          lt\n            /* \"#utility.yul\":1688:1801   */\n          iszero\n          tag_60\n          jumpi\n            /* \"#utility.yul\":1787:1788   */\n          dup1\n            /* \"#utility.yul\":1782:1785   */\n          dup3\n            /* \"#utility.yul\":1778:1789   */\n          add\n            /* \"#utility.yul\":1772:1790   */\n          mload\n            /* \"#utility.yul\":1768:1769   */\n          dup2\n            /* \"#utility.yul\":1763:1766   */\n          dup5\n            /* \"#utility.yul\":1759:1770   */\n          add\n            /* \"#utility.yul\":1752:1791   */\n          mstore\n            /* \"#utility.yul\":1724:1726   */\n          0x20\n            /* \"#utility.yul\":1721:1722   */\n          dup2\n            /* \"#utility.yul\":1717:1727   */\n          add\n            /* \"#utility.yul\":1712:1727   */\n          swap1\n          pop\n            /* \"#utility.yul\":1688:1801   */\n          jump(tag_58)\n        tag_60:\n            /* \"#utility.yul\":1819:1825   */\n          dup4\n            /* \"#utility.yul\":1816:1817   */\n          dup2\n            /* \"#utility.yul\":1813:1826   */\n          gt\n            /* \"#utility.yul\":1810:1911   */\n          iszero\n          tag_61\n          jumpi\n            /* \"#utility.yul\":1899:1900   */\n          0x00\n            /* \"#utility.yul\":1890:1896   */\n          dup5\n            /* \"#utility.yul\":1885:1888   */\n          dup5\n            /* \"#utility.yul\":1881:1897   */\n          add\n            /* \"#utility.yul\":1874:1901   */\n          mstore\n            /* \"#utility.yul\":1810:1911   */\n        tag_61:\n            /* \"#utility.yul\":1659:1917   */\n          pop\n            /* \"#utility.yul\":1610:1917   */\n          pop\n          pop\n          pop\n          jump\t// out\n            /* \"#utility.yul\":1923:2344   */\n        tag_32:\n            /* \"#utility.yul\":2012:2017   */\n          0x00\n            /* \"#utility.yul\":2037:2103   */\n          tag_63\n            /* \"#utility.yul\":2053:2102   */\n          tag_64\n            /* \"#utility.yul\":2095:2101   */\n          dup5\n            /* \"#utility.yul\":2053:2102   */\n          tag_30\n          jump\t// in\n        tag_64:\n            /* \"#utility.yul\":2037:2103   */\n          tag_29\n          jump\t// in\n        tag_63:\n            /* \"#utility.yul\":2028:2103   */\n          swap1\n          pop\n            /* \"#utility.yul\":2126:2132   */\n          dup3\n            /* \"#utility.yul\":2119:2124   */\n          dup2\n            /* \"#utility.yul\":2112:2133   */\n          mstore\n            /* \"#utility.yul\":2164:2168   */\n          0x20\n            /* \"#utility.yul\":2157:2162   */\n          dup2\n            /* \"#utility.yul\":2153:2169   */\n          add\n            /* \"#utility.yul\":2202:2205   */\n          dup5\n            /* \"#utility.yul\":2193:2199   */\n          dup5\n            /* \"#utility.yul\":2188:2191   */\n          dup5\n            /* \"#utility.yul\":2184:2200   */\n          add\n            /* \"#utility.yul\":2181:2206   */\n          gt\n            /* \"#utility.yul\":2178:2290   */\n          iszero\n          tag_65\n          jumpi\n            /* \"#utility.yul\":2209:2288   */\n          tag_66\n          tag_25\n          jump\t// in\n        tag_66:\n            /* \"#utility.yul\":2178:2290   */\n        tag_65:\n            /* \"#utility.yul\":2299:2338   */\n          tag_67\n            /* \"#utility.yul\":2331:2337   */\n          dup5\n            /* \"#utility.yul\":2326:2329   */\n          dup3\n            /* \"#utility.yul\":2321:2324   */\n          dup6\n            /* \"#utility.yul\":2299:2338   */\n          tag_31\n          jump\t// in\n        tag_67:\n            /* \"#utility.yul\":2018:2344   */\n          pop\n            /* \"#utility.yul\":1923:2344   */\n          swap4\n          swap3\n          pop\n          pop\n          pop\n          jump\t// out\n            /* \"#utility.yul\":2364:2719   */\n        tag_33:\n            /* \"#utility.yul\":2431:2436   */\n          0x00\n            /* \"#utility.yul\":2480:2483   */\n          dup3\n            /* \"#utility.yul\":2473:2477   */\n          0x1f\n            /* \"#utility.yul\":2465:2471   */\n          dup4\n            /* \"#utility.yul\":2461:2478   */\n          add\n            /* \"#utility.yul\":2457:2484   */\n          slt\n            /* \"#utility.yul\":2447:2569   */\n          tag_69\n          jumpi\n            /* \"#utility.yul\":2488:2567   */\n          tag_70\n          tag_24\n          jump\t// in\n        tag_70:\n            /* \"#utility.yul\":2447:2569   */\n        tag_69:\n            /* \"#utility.yul\":2598:2604   */\n          dup2\n            /* \"#utility.yul\":2592:2605   */\n          mload\n            /* \"#utility.yul\":2623:2713   */\n          tag_71\n            /* \"#utility.yul\":2709:2712   */\n          dup5\n            /* \"#utility.yul\":2701:2707   */\n          dup3\n            /* \"#utility.yul\":2694:2698   */\n          0x20\n            /* \"#utility.yul\":2686:2692   */\n          dup7\n            /* \"#utility.yul\":2682:2699   */\n          add\n            /* \"#utility.yul\":2623:2713   */\n          tag_32\n          jump\t// in\n        tag_71:\n            /* \"#utility.yul\":2614:2713   */\n          swap2\n          pop\n            /* \"#utility.yul\":2437:2719   */\n          pop\n            /* \"#utility.yul\":2364:2719   */\n          swap3\n          swap2\n          pop\n          pop\n          jump\t// out\n            /* \"#utility.yul\":2725:2802   */\n        tag_34:\n            /* \"#utility.yul\":2762:2769   */\n          0x00\n            /* \"#utility.yul\":2791:2796   */\n          dup2\n            /* \"#utility.yul\":2780:2796   */\n          swap1\n          pop\n            /* \"#utility.yul\":2725:2802   */\n          swap2\n          swap1\n          pop\n          jump\t// out\n            /* \"#utility.yul\":2808:2930   */\n        tag_35:\n            /* \"#utility.yul\":2881:2905   */\n          tag_74\n            /* \"#utility.yul\":2899:2904   */\n          dup2\n            /* \"#utility.yul\":2881:2905   */\n          tag_34\n          jump\t// in\n        tag_74:\n            /* \"#utility.yul\":2874:2879   */\n          dup2\n            /* \"#utility.yul\":2871:2906   */\n          eq\n            /* \"#utility.yul\":2861:2924   */\n          tag_75\n          jumpi\n            /* \"#utility.yul\":2920:2921   */\n          0x00\n            /* \"#utility.yul\":2917:2918   */\n          dup1\n            /* \"#utility.yul\":2910:2922   */\n          revert\n            /* \"#utility.yul\":2861:2924   */\n        tag_75:\n            /* \"#utility.yul\":2808:2930   */\n          pop\n          jump\t// out\n            /* \"#utility.yul\":2936:3079   */\n        tag_36:\n            /* \"#utility.yul\":2993:2998   */\n          0x00\n            /* \"#utility.yul\":3024:3030   */\n          dup2\n            /* \"#utility.yul\":3018:3031   */\n          mload\n            /* \"#utility.yul\":3009:3031   */\n          swap1\n          pop\n            /* \"#utility.yul\":3040:3073   */\n          tag_77\n            /* \"#utility.yul\":3067:3072   */\n          dup2\n            /* \"#utility.yul\":3040:3073   */\n          tag_35\n          jump\t// in\n        tag_77:\n            /* \"#utility.yul\":2936:3079   */\n          swap3\n          swap2\n          pop\n          pop\n          jump\t// out\n            /* \"#utility.yul\":3085:4094   */\n        tag_3:\n            /* \"#utility.yul\":3193:3199   */\n          0x00\n            /* \"#utility.yul\":3201:3207   */\n          dup1\n            /* \"#utility.yul\":3209:3215   */\n          0x00\n            /* \"#utility.yul\":3258:3260   */\n          0x60\n            /* \"#utility.yul\":3246:3255   */\n          dup5\n            /* \"#utility.yul\":3237:3244   */\n          dup7\n            /* \"#utility.yul\":3233:3256   */\n          sub\n            /* \"#utility.yul\":3229:3261   */\n          slt\n            /* \"#utility.yul\":3226:3345   */\n          iszero\n          tag_79\n          jumpi\n            /* \"#utility.yul\":3264:3343   */\n          tag_80\n          tag_22\n          jump\t// in\n        tag_80:\n            /* \"#utility.yul\":3226:3345   */\n        tag_79:\n            /* \"#utility.yul\":3405:3406   */\n          0x00\n            /* \"#utility.yul\":3394:3403   */\n          dup5\n            /* \"#utility.yul\":3390:3407   */\n          add\n            /* \"#utility.yul\":3384:3408   */\n          mload\n            /* \"#utility.yul\":3435:3453   */\n          0xffffffffffffffff\n            /* \"#utility.yul\":3427:3433   */\n          dup2\n            /* \"#utility.yul\":3424:3454   */\n          gt\n            /* \"#utility.yul\":3421:3538   */\n          iszero\n          tag_81\n          jumpi\n            /* \"#utility.yul\":3457:3536   */\n          tag_82\n          tag_23\n          jump\t// in\n        tag_82:\n            /* \"#utility.yul\":3421:3538   */\n        tag_81:\n            /* \"#utility.yul\":3562:3636   */\n          tag_83\n            /* \"#utility.yul\":3628:3635   */\n          dup7\n            /* \"#utility.yul\":3619:3625   */\n          dup3\n            /* \"#utility.yul\":3608:3617   */\n          dup8\n            /* \"#utility.yul\":3604:3626   */\n          add\n            /* \"#utility.yul\":3562:3636   */\n          tag_33\n          jump\t// in\n        tag_83:\n            /* \"#utility.yul\":3552:3636   */\n          swap4\n          pop\n            /* \"#utility.yul\":3355:3646   */\n          pop\n            /* \"#utility.yul\":3706:3708   */\n          0x20\n            /* \"#utility.yul\":3695:3704   */\n          dup5\n            /* \"#utility.yul\":3691:3709   */\n          add\n            /* \"#utility.yul\":3685:3710   */\n          mload\n            /* \"#utility.yul\":3737:3755   */\n          0xffffffffffffffff\n            /* \"#utility.yul\":3729:3735   */\n          dup2\n            /* \"#utility.yul\":3726:3756   */\n          gt\n            /* \"#utility.yul\":3723:3840   */\n          iszero\n          tag_84\n          jumpi\n            /* \"#utility.yul\":3759:3838   */\n          tag_85\n          tag_23\n          jump\t// in\n        tag_85:\n            /* \"#utility.yul\":3723:3840   */\n        tag_84:\n            /* \"#utility.yul\":3864:3938   */\n          tag_86\n            /* \"#utility.yul\":3930:3937   */\n          dup7\n            /* \"#utility.yul\":3921:3927   */\n          dup3\n            /* \"#utility.yul\":3910:3919   */\n          dup8\n            /* \"#utility.yul\":3906:3928   */\n          add\n            /* \"#utility.yul\":3864:3938   */\n          tag_33\n          jump\t// in\n        tag_86:\n            /* \"#utility.yul\":3854:3938   */\n          swap3\n          pop\n            /* \"#utility.yul\":3656:3948   */\n          pop\n            /* \"#utility.yul\":3987:3989   */\n          0x40\n            /* \"#utility.yul\":4013:4077   */\n          tag_87\n            /* \"#utility.yul\":4069:4076   */\n          dup7\n            /* \"#utility.yul\":4060:4066   */\n          dup3\n            /* \"#utility.yul\":4049:4058   */\n          dup8\n            /* \"#utility.yul\":4045:4067   */\n          add\n            /* \"#utility.yul\":4013:4077   */\n          tag_36\n          jump\t// in\n        tag_87:\n            /* \"#utility.yul\":4003:4077   */\n          swap2\n          pop\n            /* \"#utility.yul\":3958:4087   */\n          pop\n            /* \"#utility.yul\":3085:4094   */\n          swap3\n          pop\n          swap3\n          pop\n          swap3\n          jump\t// out\n            /* \"#utility.yul\":4100:4280   */\n        tag_37:\n            /* \"#utility.yul\":4148:4225   */\n          0x4e487b7100000000000000000000000000000000000000000000000000000000\n            /* \"#utility.yul\":4145:4146   */\n          0x00\n            /* \"#utility.yul\":4138:4226   */\n          mstore\n            /* \"#utility.yul\":4245:4249   */\n          0x22\n            /* \"#utility.yul\":4242:4243   */\n          0x04\n            /* \"#utility.yul\":4235:4250   */\n          mstore\n            /* \"#utility.yul\":4269:4273   */\n          0x24\n            /* \"#utility.yul\":4266:4267   */\n          0x00\n            /* \"#utility.yul\":4259:4274   */\n          revert\n            /* \"#utility.yul\":4286:4606   */\n        tag_11:\n            /* \"#utility.yul\":4330:4336   */\n          0x00\n            /* \"#utility.yul\":4367:4368   */\n          0x02\n            /* \"#utility.yul\":4361:4365   */\n          dup3\n            /* \"#utility.yul\":4357:4369   */\n          div\n            /* \"#utility.yul\":4347:4369   */\n          swap1\n          pop\n            /* \"#utility.yul\":4414:4415   */\n          0x01\n            /* \"#utility.yul\":4408:4412   */\n          dup3\n            /* \"#utility.yul\":4404:4416   */\n          and\n            /* \"#utility.yul\":4435:4453   */\n          dup1\n            /* \"#utility.yul\":4425:4506   */\n          tag_90\n          jumpi\n            /* \"#utility.yul\":4491:4495   */\n          0x7f\n            /* \"#utility.yul\":4483:4489   */\n          dup3\n            /* \"#utility.yul\":4479:4496   */\n          and\n            /* \"#utility.yul\":4469:4496   */\n          swap2\n          pop\n            /* \"#utility.yul\":4425:4506   */\n        tag_90:\n            /* \"#utility.yul\":4553:4555   */\n          0x20\n            /* \"#utility.yul\":4545:4551   */\n          dup3\n            /* \"#utility.yul\":4542:4556   */\n          lt\n            /* \"#utility.yul\":4522:4540   */\n          dup2\n            /* \"#utility.yul\":4519:4557   */\n          eq\n            /* \"#utility.yul\":4516:4600   */\n          iszero\n          tag_91\n          jumpi\n            /* \"#utility.yul\":4572:4590   */\n          tag_92\n          tag_37\n          jump\t// in\n        tag_92:\n            /* \"#utility.yul\":4516:4600   */\n        tag_91:\n            /* \"#utility.yul\":4337:4606   */\n          pop\n            /* \"#utility.yul\":4286:4606   */\n          swap2\n          swap1\n          pop\n          jump\t// out\n            /* \"Auctioninfo.sol\":498:1012  contract FundRaiser {... */\n        tag_9:\n          dataSize(sub_0)\n          dup1\n          dataOffset(sub_0)\n          0x00\n          codecopy\n          0x00\n          return\n        stop\n\n        sub_0: assembly {\n                /* \"Auctioninfo.sol\":498:1012  contract FundRaiser {... */\n              mstore(0x40, 0x80)\n              callvalue\n              dup1\n              iszero\n              tag_1\n              jumpi\n              0x00\n              dup1\n              revert\n            tag_1:\n              pop\n              jumpi(tag_2, lt(calldatasize, 0x04))\n              shr(0xe0, calldataload(0x00))\n              dup1\n              0x3fa4f245\n              eq\n              tag_3\n              jumpi\n              dup1\n              0x4051ddac\n              eq\n              tag_4\n              jumpi\n              dup1\n              0x6bb3471a\n              eq\n              tag_5\n              jumpi\n              dup1\n              0xee7a3b8e\n              eq\n              tag_6\n              jumpi\n            tag_2:\n              0x00\n              dup1\n              revert\n                /* \"Auctioninfo.sol\":585:605  uint256 public value */\n            tag_3:\n              tag_7\n              tag_8\n              jump\t// in\n            tag_7:\n              mload(0x40)\n              tag_9\n              swap2\n              swap1\n              tag_10\n              jump\t// in\n            tag_9:\n              mload(0x40)\n              dup1\n              swap2\n              sub\n              swap1\n              return\n                /* \"Auctioninfo.sol\":790:1009  function getSummary()... */\n            tag_4:\n              tag_11\n              tag_12\n              jump\t// in\n            tag_11:\n              mload(0x40)\n              tag_13\n              swap4\n              swap3\n              swap2\n              swap1\n              tag_14\n              jump\t// in\n            tag_13:\n              mload(0x40)\n              dup1\n              swap2\n              sub\n              swap1\n              return\n                /* \"Auctioninfo.sol\":525:547  string public clientId */\n            tag_5:\n              tag_15\n              tag_16\n              jump\t// in\n            tag_15:\n              mload(0x40)\n              tag_17\n              swap2\n              swap1\n              tag_18\n              jump\t// in\n            tag_17:\n              mload(0x40)\n              dup1\n              swap2\n              sub\n              swap1\n              return\n                /* \"Auctioninfo.sol\":554:578  string public propertyId */\n            tag_6:\n              tag_19\n              tag_20\n              jump\t// in\n            tag_19:\n              mload(0x40)\n              tag_21\n              swap2\n              swap1\n              tag_18\n              jump\t// in\n            tag_21:\n              mload(0x40)\n              dup1\n              swap2\n              sub\n              swap1\n              return\n                /* \"Auctioninfo.sol\":585:605  uint256 public value */\n            tag_8:\n              sload(0x02)\n              dup2\n              jump\t// out\n                /* \"Auctioninfo.sol\":790:1009  function getSummary()... */\n            tag_12:\n                /* \"Auctioninfo.sol\":874:887  string memory */\n              0x60\n                /* \"Auctioninfo.sol\":902:915  string memory */\n              dup1\n                /* \"Auctioninfo.sol\":930:937  uint256 */\n              0x00\n                /* \"Auctioninfo.sol\":973:981  clientId */\n              dup1\n                /* \"Auctioninfo.sol\":983:993  propertyId */\n              0x01\n                /* \"Auctioninfo.sol\":995:1000  value */\n              sload(0x02)\n                /* \"Auctioninfo.sol\":965:1001  return (clientId, propertyId, value) */\n              dup3\n              dup1\n              sload\n              tag_23\n              swap1\n              tag_24\n              jump\t// in\n            tag_23:\n              dup1\n              0x1f\n              add\n              0x20\n              dup1\n              swap2\n              div\n              mul\n              0x20\n              add\n              mload(0x40)\n              swap1\n              dup2\n              add\n              0x40\n              mstore\n              dup1\n              swap3\n              swap2\n              swap1\n              dup2\n              dup2\n              mstore\n              0x20\n              add\n              dup3\n              dup1\n              sload\n              tag_25\n              swap1\n              tag_24\n              jump\t// in\n            tag_25:\n              dup1\n              iszero\n              tag_26\n              jumpi\n              dup1\n              0x1f\n              lt\n              tag_27\n              jumpi\n              0x0100\n              dup1\n              dup4\n              sload\n              div\n              mul\n              dup4\n              mstore\n              swap2\n              0x20\n              add\n              swap2\n              jump(tag_26)\n            tag_27:\n              dup3\n              add\n              swap2\n              swap1\n              0x00\n              mstore\n              keccak256(0x00, 0x20)\n              swap1\n            tag_28:\n              dup2\n              sload\n              dup2\n              mstore\n              swap1\n              0x01\n              add\n              swap1\n              0x20\n              add\n              dup1\n              dup4\n              gt\n              tag_28\n              jumpi\n              dup3\n              swap1\n              sub\n              0x1f\n              and\n              dup3\n              add\n              swap2\n            tag_26:\n              pop\n              pop\n              pop\n              pop\n              pop\n              swap3\n              pop\n              dup2\n              dup1\n              sload\n              tag_29\n              swap1\n              tag_24\n              jump\t// in\n            tag_29:\n              dup1\n              0x1f\n              add\n              0x20\n              dup1\n              swap2\n              div\n              mul\n              0x20\n              add\n              mload(0x40)\n              swap1\n              dup2\n              add\n              0x40\n              mstore\n              dup1\n              swap3\n              swap2\n              swap1\n              dup2\n              dup2\n              mstore\n              0x20\n              add\n              dup3\n              dup1\n              sload\n              tag_30\n              swap1\n              tag_24\n              jump\t// in\n            tag_30:\n              dup1\n              iszero\n              tag_31\n              jumpi\n              dup1\n              0x1f\n              lt\n              tag_32\n              jumpi\n              0x0100\n              dup1\n              dup4\n              sload\n              div\n              mul\n              dup4\n              mstore\n              swap2\n              0x20\n              add\n              swap2\n              jump(tag_31)\n            tag_32:\n              dup3\n              add\n              swap2\n              swap1\n              0x00\n              mstore\n              keccak256(0x00, 0x20)\n              swap1\n            tag_33:\n              dup2\n              sload\n              dup2\n              mstore\n              swap1\n              0x01\n              add\n              swap1\n              0x20\n              add\n              dup1\n              dup4\n              gt\n              tag_33\n              jumpi\n              dup3\n              swap1\n              sub\n              0x1f\n              and\n              dup3\n              add\n              swap2\n            tag_31:\n              pop\n              pop\n              pop\n              pop\n              pop\n              swap2\n              pop\n              swap3\n              pop\n              swap3\n              pop\n              swap3\n              pop\n                /* \"Auctioninfo.sol\":790:1009  function getSummary()... */\n              swap1\n              swap2\n              swap3\n              jump\t// out\n                /* \"Auctioninfo.sol\":525:547  string public clientId */\n            tag_16:\n              0x00\n              dup1\n              sload\n              tag_34\n              swap1\n              tag_24\n              jump\t// in\n            tag_34:\n              dup1\n              0x1f\n              add\n              0x20\n              dup1\n              swap2\n              div\n              mul\n              0x20\n              add\n              mload(0x40)\n              swap1\n              dup2\n              add\n              0x40\n              mstore\n              dup1\n              swap3\n              swap2\n              swap1\n              dup2\n              dup2\n              mstore\n              0x20\n              add\n              dup3\n              dup1\n              sload\n              tag_35\n              swap1\n              tag_24\n              jump\t// in\n            tag_35:\n              dup1\n              iszero\n              tag_36\n              jumpi\n              dup1\n              0x1f\n              lt\n              tag_37\n              jumpi\n              0x0100\n              dup1\n              dup4\n              sload\n              div\n              mul\n              dup4\n              mstore\n              swap2\n              0x20\n              add\n              swap2\n              jump(tag_36)\n            tag_37:\n              dup3\n              add\n              swap2\n              swap1\n              0x00\n              mstore\n              keccak256(0x00, 0x20)\n              swap1\n            tag_38:\n              dup2\n              sload\n              dup2\n              mstore\n              swap1\n              0x01\n              add\n              swap1\n              0x20\n              add\n              dup1\n              dup4\n              gt\n              tag_38\n              jumpi\n              dup3\n              swap1\n              sub\n              0x1f\n              and\n              dup3\n              add\n              swap2\n            tag_36:\n              pop\n              pop\n              pop\n              pop\n              pop\n              dup2\n              jump\t// out\n                /* \"Auctioninfo.sol\":554:578  string public propertyId */\n            tag_20:\n              0x01\n              dup1\n              sload\n              tag_39\n              swap1\n              tag_24\n              jump\t// in\n            tag_39:\n              dup1\n              0x1f\n              add\n              0x20\n              dup1\n              swap2\n              div\n              mul\n              0x20\n              add\n              mload(0x40)\n              swap1\n              dup2\n              add\n              0x40\n              mstore\n              dup1\n              swap3\n              swap2\n              swap1\n              dup2\n              dup2\n              mstore\n              0x20\n              add\n              dup3\n              dup1\n              sload\n              tag_40\n              swap1\n              tag_24\n              jump\t// in\n            tag_40:\n              dup1\n              iszero\n              tag_41\n              jumpi\n              dup1\n              0x1f\n              lt\n              tag_42\n              jumpi\n              0x0100\n              dup1\n              dup4\n              sload\n              div\n              mul\n              dup4\n              mstore\n              swap2\n              0x20\n              add\n              swap2\n              jump(tag_41)\n            tag_42:\n              dup3\n              add\n              swap2\n              swap1\n              0x00\n              mstore\n              keccak256(0x00, 0x20)\n              swap1\n            tag_43:\n              dup2\n              sload\n              dup2\n              mstore\n              swap1\n              0x01\n              add\n              swap1\n              0x20\n              add\n              dup1\n              dup4\n              gt\n              tag_43\n              jumpi\n              dup3\n              swap1\n              sub\n              0x1f\n              and\n              dup3\n              add\n              swap2\n            tag_41:\n              pop\n              pop\n              pop\n              pop\n              pop\n              dup2\n              jump\t// out\n                /* \"#utility.yul\":7:84   */\n            tag_44:\n                /* \"#utility.yul\":44:51   */\n              0x00\n                /* \"#utility.yul\":73:78   */\n              dup2\n                /* \"#utility.yul\":62:78   */\n              swap1\n              pop\n                /* \"#utility.yul\":7:84   */\n              swap2\n              swap1\n              pop\n              jump\t// out\n                /* \"#utility.yul\":90:208   */\n            tag_45:\n                /* \"#utility.yul\":177:201   */\n              tag_55\n                /* \"#utility.yul\":195:200   */\n              dup2\n                /* \"#utility.yul\":177:201   */\n              tag_44\n              jump\t// in\n            tag_55:\n                /* \"#utility.yul\":172:175   */\n              dup3\n                /* \"#utility.yul\":165:202   */\n              mstore\n                /* \"#utility.yul\":90:208   */\n              pop\n              pop\n              jump\t// out\n                /* \"#utility.yul\":214:436   */\n            tag_10:\n                /* \"#utility.yul\":307:311   */\n              0x00\n                /* \"#utility.yul\":345:347   */\n              0x20\n                /* \"#utility.yul\":334:343   */\n              dup3\n                /* \"#utility.yul\":330:348   */\n              add\n                /* \"#utility.yul\":322:348   */\n              swap1\n              pop\n                /* \"#utility.yul\":358:429   */\n              tag_57\n                /* \"#utility.yul\":426:427   */\n              0x00\n                /* \"#utility.yul\":415:424   */\n              dup4\n                /* \"#utility.yul\":411:428   */\n              add\n                /* \"#utility.yul\":402:408   */\n              dup5\n                /* \"#utility.yul\":358:429   */\n              tag_45\n              jump\t// in\n            tag_57:\n                /* \"#utility.yul\":214:436   */\n              swap3\n              swap2\n              pop\n              pop\n              jump\t// out\n                /* \"#utility.yul\":442:541   */\n            tag_46:\n                /* \"#utility.yul\":494:500   */\n              0x00\n                /* \"#utility.yul\":528:533   */\n              dup2\n                /* \"#utility.yul\":522:534   */\n              mload\n                /* \"#utility.yul\":512:534   */\n              swap1\n              pop\n                /* \"#utility.yul\":442:541   */\n              swap2\n              swap1\n              pop\n              jump\t// out\n                /* \"#utility.yul\":547:716   */\n            tag_47:\n                /* \"#utility.yul\":631:642   */\n              0x00\n                /* \"#utility.yul\":665:671   */\n              dup3\n                /* \"#utility.yul\":660:663   */\n              dup3\n                /* \"#utility.yul\":653:672   */\n              mstore\n                /* \"#utility.yul\":705:709   */\n              0x20\n                /* \"#utility.yul\":700:703   */\n              dup3\n                /* \"#utility.yul\":696:710   */\n              add\n                /* \"#utility.yul\":681:710   */\n              swap1\n              pop\n                /* \"#utility.yul\":547:716   */\n              swap3\n              swap2\n              pop\n              pop\n              jump\t// out\n                /* \"#utility.yul\":722:1029   */\n            tag_48:\n                /* \"#utility.yul\":790:791   */\n              0x00\n                /* \"#utility.yul\":800:913   */\n            tag_61:\n                /* \"#utility.yul\":814:820   */\n              dup4\n                /* \"#utility.yul\":811:812   */\n              dup2\n                /* \"#utility.yul\":808:821   */\n              lt\n                /* \"#utility.yul\":800:913   */\n              iszero\n              tag_63\n              jumpi\n                /* \"#utility.yul\":899:900   */\n              dup1\n                /* \"#utility.yul\":894:897   */\n              dup3\n                /* \"#utility.yul\":890:901   */\n              add\n                /* \"#utility.yul\":884:902   */\n              mload\n                /* \"#utility.yul\":880:881   */\n              dup2\n                /* \"#utility.yul\":875:878   */\n              dup5\n                /* \"#utility.yul\":871:882   */\n              add\n                /* \"#utility.yul\":864:903   */\n              mstore\n                /* \"#utility.yul\":836:838   */\n              0x20\n                /* \"#utility.yul\":833:834   */\n              dup2\n                /* \"#utility.yul\":829:839   */\n              add\n                /* \"#utility.yul\":824:839   */\n              swap1\n              pop\n                /* \"#utility.yul\":800:913   */\n              jump(tag_61)\n            tag_63:\n                /* \"#utility.yul\":931:937   */\n              dup4\n                /* \"#utility.yul\":928:929   */\n              dup2\n                /* \"#utility.yul\":925:938   */\n              gt\n                /* \"#utility.yul\":922:1023   */\n              iszero\n              tag_64\n              jumpi\n                /* \"#utility.yul\":1011:1012   */\n              0x00\n                /* \"#utility.yul\":1002:1008   */\n              dup5\n                /* \"#utility.yul\":997:1000   */\n              dup5\n                /* \"#utility.yul\":993:1009   */\n              add\n                /* \"#utility.yul\":986:1013   */\n              mstore\n                /* \"#utility.yul\":922:1023   */\n            tag_64:\n                /* \"#utility.yul\":771:1029   */\n              pop\n                /* \"#utility.yul\":722:1029   */\n              pop\n              pop\n              pop\n              jump\t// out\n                /* \"#utility.yul\":1035:1137   */\n            tag_49:\n                /* \"#utility.yul\":1076:1082   */\n              0x00\n                /* \"#utility.yul\":1127:1129   */\n              0x1f\n                /* \"#utility.yul\":1123:1130   */\n              not\n                /* \"#utility.yul\":1118:1120   */\n              0x1f\n                /* \"#utility.yul\":1111:1116   */\n              dup4\n                /* \"#utility.yul\":1107:1121   */\n              add\n                /* \"#utility.yul\":1103:1131   */\n              and\n                /* \"#utility.yul\":1093:1131   */\n              swap1\n              pop\n                /* \"#utility.yul\":1035:1137   */\n              swap2\n              swap1\n              pop\n              jump\t// out\n                /* \"#utility.yul\":1143:1507   */\n            tag_50:\n                /* \"#utility.yul\":1231:1234   */\n              0x00\n                /* \"#utility.yul\":1259:1298   */\n              tag_67\n                /* \"#utility.yul\":1292:1297   */\n              dup3\n                /* \"#utility.yul\":1259:1298   */\n              tag_46\n              jump\t// in\n            tag_67:\n                /* \"#utility.yul\":1314:1385   */\n              tag_68\n                /* \"#utility.yul\":1378:1384   */\n              dup2\n                /* \"#utility.yul\":1373:1376   */\n              dup6\n                /* \"#utility.yul\":1314:1385   */\n              tag_47\n              jump\t// in\n            tag_68:\n                /* \"#utility.yul\":1307:1385   */\n              swap4\n              pop\n                /* \"#utility.yul\":1394:1446   */\n              tag_69\n                /* \"#utility.yul\":1439:1445   */\n              dup2\n                /* \"#utility.yul\":1434:1437   */\n              dup6\n                /* \"#utility.yul\":1427:1431   */\n              0x20\n                /* \"#utility.yul\":1420:1425   */\n              dup7\n                /* \"#utility.yul\":1416:1432   */\n              add\n                /* \"#utility.yul\":1394:1446   */\n              tag_48\n              jump\t// in\n            tag_69:\n                /* \"#utility.yul\":1471:1500   */\n              tag_70\n                /* \"#utility.yul\":1493:1499   */\n              dup2\n                /* \"#utility.yul\":1471:1500   */\n              tag_49\n              jump\t// in\n            tag_70:\n                /* \"#utility.yul\":1466:1469   */\n              dup5\n                /* \"#utility.yul\":1462:1501   */\n              add\n                /* \"#utility.yul\":1455:1501   */\n              swap2\n              pop\n                /* \"#utility.yul\":1235:1507   */\n              pop\n                /* \"#utility.yul\":1143:1507   */\n              swap3\n              swap2\n              pop\n              pop\n              jump\t// out\n                /* \"#utility.yul\":1513:2137   */\n            tag_14:\n                /* \"#utility.yul\":1702:1706   */\n              0x00\n                /* \"#utility.yul\":1740:1742   */\n              0x60\n                /* \"#utility.yul\":1729:1738   */\n              dup3\n                /* \"#utility.yul\":1725:1743   */\n              add\n                /* \"#utility.yul\":1717:1743   */\n              swap1\n              pop\n                /* \"#utility.yul\":1789:1798   */\n              dup2\n                /* \"#utility.yul\":1783:1787   */\n              dup2\n                /* \"#utility.yul\":1779:1799   */\n              sub\n                /* \"#utility.yul\":1775:1776   */\n              0x00\n                /* \"#utility.yul\":1764:1773   */\n              dup4\n                /* \"#utility.yul\":1760:1777   */\n              add\n                /* \"#utility.yul\":1753:1800   */\n              mstore\n                /* \"#utility.yul\":1817:1895   */\n              tag_72\n                /* \"#utility.yul\":1890:1894   */\n              dup2\n                /* \"#utility.yul\":1881:1887   */\n              dup7\n                /* \"#utility.yul\":1817:1895   */\n              tag_50\n              jump\t// in\n            tag_72:\n                /* \"#utility.yul\":1809:1895   */\n              swap1\n              pop\n                /* \"#utility.yul\":1942:1951   */\n              dup2\n                /* \"#utility.yul\":1936:1940   */\n              dup2\n                /* \"#utility.yul\":1932:1952   */\n              sub\n                /* \"#utility.yul\":1927:1929   */\n              0x20\n                /* \"#utility.yul\":1916:1925   */\n              dup4\n                /* \"#utility.yul\":1912:1930   */\n              add\n                /* \"#utility.yul\":1905:1953   */\n              mstore\n                /* \"#utility.yul\":1970:2048   */\n              tag_73\n                /* \"#utility.yul\":2043:2047   */\n              dup2\n                /* \"#utility.yul\":2034:2040   */\n              dup6\n                /* \"#utility.yul\":1970:2048   */\n              tag_50\n              jump\t// in\n            tag_73:\n                /* \"#utility.yul\":1962:2048   */\n              swap1\n              pop\n                /* \"#utility.yul\":2058:2130   */\n              tag_74\n                /* \"#utility.yul\":2126:2128   */\n              0x40\n                /* \"#utility.yul\":2115:2124   */\n              dup4\n                /* \"#utility.yul\":2111:2129   */\n              add\n                /* \"#utility.yul\":2102:2108   */\n              dup5\n                /* \"#utility.yul\":2058:2130   */\n              tag_45\n              jump\t// in\n            tag_74:\n                /* \"#utility.yul\":1513:2137   */\n              swap5\n              swap4\n              pop\n              pop\n              pop\n              pop\n              jump\t// out\n                /* \"#utility.yul\":2143:2456   */\n            tag_18:\n                /* \"#utility.yul\":2256:2260   */\n              0x00\n                /* \"#utility.yul\":2294:2296   */\n              0x20\n                /* \"#utility.yul\":2283:2292   */\n              dup3\n                /* \"#utility.yul\":2279:2297   */\n              add\n                /* \"#utility.yul\":2271:2297   */\n              swap1\n              pop\n                /* \"#utility.yul\":2343:2352   */\n              dup2\n                /* \"#utility.yul\":2337:2341   */\n              dup2\n                /* \"#utility.yul\":2333:2353   */\n              sub\n                /* \"#utility.yul\":2329:2330   */\n              0x00\n                /* \"#utility.yul\":2318:2327   */\n              dup4\n                /* \"#utility.yul\":2314:2331   */\n              add\n                /* \"#utility.yul\":2307:2354   */\n              mstore\n                /* \"#utility.yul\":2371:2449   */\n              tag_76\n                /* \"#utility.yul\":2444:2448   */\n              dup2\n                /* \"#utility.yul\":2435:2441   */\n              dup5\n                /* \"#utility.yul\":2371:2449   */\n              tag_50\n              jump\t// in\n            tag_76:\n                /* \"#utility.yul\":2363:2449   */\n              swap1\n              pop\n                /* \"#utility.yul\":2143:2456   */\n              swap3\n              swap2\n              pop\n              pop\n              jump\t// out\n                /* \"#utility.yul\":2462:2642   */\n            tag_51:\n                /* \"#utility.yul\":2510:2587   */\n              0x4e487b7100000000000000000000000000000000000000000000000000000000\n                /* \"#utility.yul\":2507:2508   */\n              0x00\n                /* \"#utility.yul\":2500:2588   */\n              mstore\n                /* \"#utility.yul\":2607:2611   */\n              0x22\n                /* \"#utility.yul\":2604:2605   */\n              0x04\n                /* \"#utility.yul\":2597:2612   */\n              mstore\n                /* \"#utility.yul\":2631:2635   */\n              0x24\n                /* \"#utility.yul\":2628:2629   */\n              0x00\n                /* \"#utility.yul\":2621:2636   */\n              revert\n                /* \"#utility.yul\":2648:2968   */\n            tag_24:\n                /* \"#utility.yul\":2692:2698   */\n              0x00\n                /* \"#utility.yul\":2729:2730   */\n              0x02\n                /* \"#utility.yul\":2723:2727   */\n              dup3\n                /* \"#utility.yul\":2719:2731   */\n              div\n                /* \"#utility.yul\":2709:2731   */\n              swap1\n              pop\n                /* \"#utility.yul\":2776:2777   */\n              0x01\n                /* \"#utility.yul\":2770:2774   */\n              dup3\n                /* \"#utility.yul\":2766:2778   */\n              and\n                /* \"#utility.yul\":2797:2815   */\n              dup1\n                /* \"#utility.yul\":2787:2868   */\n              tag_79\n              jumpi\n                /* \"#utility.yul\":2853:2857   */\n              0x7f\n                /* \"#utility.yul\":2845:2851   */\n              dup3\n                /* \"#utility.yul\":2841:2858   */\n              and\n                /* \"#utility.yul\":2831:2858   */\n              swap2\n              pop\n                /* \"#utility.yul\":2787:2868   */\n            tag_79:\n                /* \"#utility.yul\":2915:2917   */\n              0x20\n                /* \"#utility.yul\":2907:2913   */\n              dup3\n                /* \"#utility.yul\":2904:2918   */\n              lt\n                /* \"#utility.yul\":2884:2902   */\n              dup2\n                /* \"#utility.yul\":2881:2919   */\n              eq\n                /* \"#utility.yul\":2878:2962   */\n              iszero\n              tag_80\n              jumpi\n                /* \"#utility.yul\":2934:2952   */\n              tag_81\n              tag_51\n              jump\t// in\n            tag_81:\n                /* \"#utility.yul\":2878:2962   */\n            tag_80:\n                /* \"#utility.yul\":2699:2968   */\n              pop\n                /* \"#utility.yul\":2648:2968   */\n              swap2\n              swap1\n              pop\n              jump\t// out\n\n            auxdata: 0xa264697066735822122067202e59b5fd3a21e28041c31fe9ccc3ac9bef791950d2b8052bf4e1466b5ed264736f6c634300080b0033\n        }\n    }\n\n    auxdata: 0xa26469706673582212206e23db0240c657dd774c1d8c85aeb1c24a3f2bd1a080999a697a84311cb488c464736f6c634300080b0033\n}\n","bytecode":{"linkReferences":{},"object":"608060405234801561001057600080fd5b50610e90806100206000396000f3fe60806040523480156200001157600080fd5b5060043610620000465760003560e01c80630c4ba8d6146200004b5780636d4ce63c146200006b578063a5e38751146200008d575b600080fd5b620000696004803603810190620000639190620002cf565b620000c3565b005b6200007562000173565b604051620000849190620003b8565b60405180910390f35b620000ab6004803603810190620000a59190620003d5565b620001ce565b604051620000ba9190620003b8565b60405180910390f35b60008585858585604051620000d8906200020e565b620000e89594939291906200047c565b604051809103906000f08015801562000105573d6000803e3d6000fd5b5090506000819080600181540180825580915050600190039060005260206000200160009091909190916101000a81548173ffffffffffffffffffffffffffffffffffffffff021916908373ffffffffffffffffffffffffffffffffffffffff160217905550505050505050565b60008060016000805490506200018a9190620004fa565b815481106200019e576200019d62000535565b5b9060005260206000200160009054906101000a900473ffffffffffffffffffffffffffffffffffffffff16905090565b60008181548110620001df57600080fd5b906000526020600020016000915054906101000a900473ffffffffffffffffffffffffffffffffffffffff1681565b6108f6806200056583390190565b600080fd5b600080fd5b600080fd5b600080fd5b600080fd5b60008083601f8401126200024e576200024d62000226565b5b8235905067ffffffffffffffff8111156200026e576200026d6200022b565b5b6020830191508360018202830111156200028d576200028c62000230565b5b9250929050565b6000819050919050565b620002a98162000294565b8114620002b557600080fd5b50565b600081359050620002c9816200029e565b92915050565b600080600080600060608688031215620002ee57620002ed6200021c565b5b600086013567ffffffffffffffff8111156200030f576200030e62000221565b5b6200031d8882890162000235565b9550955050602086013567ffffffffffffffff81111562000343576200034262000221565b5b620003518882890162000235565b935093505060406200036688828901620002b8565b9150509295509295909350565b600073ffffffffffffffffffffffffffffffffffffffff82169050919050565b6000620003a08262000373565b9050919050565b620003b28162000393565b82525050565b6000602082019050620003cf6000830184620003a7565b92915050565b600060208284031215620003ee57620003ed6200021c565b5b6000620003fe84828501620002b8565b91505092915050565b600082825260208201905092915050565b82818337600083830152505050565b6000601f19601f8301169050919050565b600062000446838562000407565b93506200045583858462000418565b620004608362000427565b840190509392505050565b620004768162000294565b82525050565b600060608201905081810360008301526200049981878962000438565b90508181036020830152620004b081858762000438565b9050620004c160408301846200046b565b9695505050505050565b7f4e487b7100000000000000000000000000000000000000000000000000000000600052601160045260246000fd5b6000620005078262000294565b9150620005148362000294565b9250828210156200052a5762000529620004cb565b5b828203905092915050565b7f4e487b7100000000000000000000000000000000000000000000000000000000600052603260045260246000fdfe60806040523480156200001157600080fd5b50604051620008f6380380620008f6833981810160405281019062000037919062000301565b82600090805190602001906200004f92919062000079565b5081600190805190602001906200006892919062000079565b508060028190555050505062000400565b8280546200008790620003ca565b90600052602060002090601f016020900481019282620000ab5760008555620000f7565b82601f10620000c657805160ff1916838001178555620000f7565b82800160010185558215620000f7579182015b82811115620000f6578251825591602001919060010190620000d9565b5b5090506200010691906200010a565b5090565b5b80821115620001255760008160009055506001016200010b565b5090565b6000604051905090565b600080fd5b600080fd5b600080fd5b600080fd5b6000601f19601f8301169050919050565b7f4e487b7100000000000000000000000000000000000000000000000000000000600052604160045260246000fd5b620001928262000147565b810181811067ffffffffffffffff82111715620001b457620001b362000158565b5b80604052505050565b6000620001c962000129565b9050620001d7828262000187565b919050565b600067ffffffffffffffff821115620001fa57620001f962000158565b5b620002058262000147565b9050602081019050919050565b60005b838110156200023257808201518184015260208101905062000215565b8381111562000242576000848401525b50505050565b60006200025f6200025984620001dc565b620001bd565b9050828152602081018484840111156200027e576200027d62000142565b5b6200028b84828562000212565b509392505050565b600082601f830112620002ab57620002aa6200013d565b5b8151620002bd84826020860162000248565b91505092915050565b6000819050919050565b620002db81620002c6565b8114620002e757600080fd5b50565b600081519050620002fb81620002d0565b92915050565b6000806000606084860312156200031d576200031c62000133565b5b600084015167ffffffffffffffff8111156200033e576200033d62000138565b5b6200034c8682870162000293565b935050602084015167ffffffffffffffff81111562000370576200036f62000138565b5b6200037e8682870162000293565b92505060406200039186828701620002ea565b9150509250925092565b7f4e487b7100000000000000000000000000000000000000000000000000000000600052602260045260246000fd5b60006002820490506001821680620003e357607f821691505b60208210811415620003fa57620003f96200039b565b5b50919050565b6104e680620004106000396000f3fe608060405234801561001057600080fd5b506004361061004c5760003560e01c80633fa4f245146100515780634051ddac1461006f5780636bb3471a1461008f578063ee7a3b8e146100ad575b600080fd5b6100596100cb565b6040516100669190610334565b60405180910390f35b6100776100d1565b604051610086939291906103e8565b60405180910390f35b6100976101ff565b6040516100a4919061042d565b60405180910390f35b6100b561028d565b6040516100c2919061042d565b60405180910390f35b60025481565b60608060008060016002548280546100e89061047e565b80601f01602080910402602001604051908101604052809291908181526020018280546101149061047e565b80156101615780601f1061013657610100808354040283529160200191610161565b820191906000526020600020905b81548152906001019060200180831161014457829003601f168201915b505050505092508180546101749061047e565b80601f01602080910402602001604051908101604052809291908181526020018280546101a09061047e565b80156101ed5780601f106101c2576101008083540402835291602001916101ed565b820191906000526020600020905b8154815290600101906020018083116101d057829003601f168201915b50505050509150925092509250909192565b6000805461020c9061047e565b80601f01602080910402602001604051908101604052809291908181526020018280546102389061047e565b80156102855780601f1061025a57610100808354040283529160200191610285565b820191906000526020600020905b81548152906001019060200180831161026857829003601f168201915b505050505081565b6001805461029a9061047e565b80601f01602080910402602001604051908101604052809291908181526020018280546102c69061047e565b80156103135780601f106102e857610100808354040283529160200191610313565b820191906000526020600020905b8154815290600101906020018083116102f657829003601f168201915b505050505081565b6000819050919050565b61032e8161031b565b82525050565b60006020820190506103496000830184610325565b92915050565b600081519050919050565b600082825260208201905092915050565b60005b8381101561038957808201518184015260208101905061036e565b83811115610398576000848401525b50505050565b6000601f19601f8301169050919050565b60006103ba8261034f565b6103c4818561035a565b93506103d481856020860161036b565b6103dd8161039e565b840191505092915050565b6000606082019050818103600083015261040281866103af565b9050818103602083015261041681856103af565b90506104256040830184610325565b949350505050565b6000602082019050818103600083015261044781846103af565b905092915050565b7f4e487b7100000000000000000000000000000000000000000000000000000000600052602260045260246000fd5b6000600282049050600182168061049657607f821691505b602082108114156104aa576104a961044f565b5b5091905056fea264697066735822122067202e59b5fd3a21e28041c31fe9ccc3ac9bef791950d2b8052bf4e1466b5ed264736f6c634300080b0033a26469706673582212206e23db0240c657dd774c1d8c85aeb1c24a3f2bd1a080999a697a84311cb488c464736f6c634300080b0033","opcodes":"PUSH1 0x80 PUSH1 0x40 MSTORE CALLVALUE DUP1 ISZERO PUSH2 0x10 JUMPI PUSH1 0x0 DUP1 REVERT JUMPDEST POP PUSH2 0xE90 DUP1 PUSH2 0x20 PUSH1 0x0 CODECOPY PUSH1 0x0 RETURN INVALID PUSH1 0x80 PUSH1 0x40 MSTORE CALLVALUE DUP1 ISZERO PUSH3 0x11 JUMPI PUSH1 0x0 DUP1 REVERT JUMPDEST POP PUSH1 0x4 CALLDATASIZE LT PUSH3 0x46 JUMPI PUSH1 0x0 CALLDATALOAD PUSH1 0xE0 SHR DUP1 PUSH4 0xC4BA8D6 EQ PUSH3 0x4B JUMPI DUP1 PUSH4 0x6D4CE63C EQ PUSH3 0x6B JUMPI DUP1 PUSH4 0xA5E38751 EQ PUSH3 0x8D JUMPI JUMPDEST PUSH1 0x0 DUP1 REVERT JUMPDEST PUSH3 0x69 PUSH1 0x4 DUP1 CALLDATASIZE SUB DUP2 ADD SWAP1 PUSH3 0x63 SWAP2 SWAP1 PUSH3 0x2CF JUMP JUMPDEST PUSH3 0xC3 JUMP JUMPDEST STOP JUMPDEST PUSH3 0x75 PUSH3 0x173 JUMP JUMPDEST PUSH1 0x40 MLOAD PUSH3 0x84 SWAP2 SWAP1 PUSH3 0x3B8 JUMP JUMPDEST PUSH1 0x40 MLOAD DUP1 SWAP2 SUB SWAP1 RETURN JUMPDEST PUSH3 0xAB PUSH1 0x4 DUP1 CALLDATASIZE SUB DUP2 ADD SWAP1 PUSH3 0xA5 SWAP2 SWAP1 PUSH3 0x3D5 JUMP JUMPDEST PUSH3 0x1CE JUMP JUMPDEST PUSH1 0x40 MLOAD PUSH3 0xBA SWAP2 SWAP1 PUSH3 0x3B8 JUMP JUMPDEST PUSH1 0x40 MLOAD DUP1 SWAP2 SUB SWAP1 RETURN JUMPDEST PUSH1 0x0 DUP6 DUP6 DUP6 DUP6 DUP6 PUSH1 0x40 MLOAD PUSH3 0xD8 SWAP1 PUSH3 0x20E JUMP JUMPDEST PUSH3 0xE8 SWAP6 SWAP5 SWAP4 SWAP3 SWAP2 SWAP1 PUSH3 0x47C JUMP JUMPDEST PUSH1 0x40 MLOAD DUP1 SWAP2 SUB SWAP1 PUSH1 0x0 CREATE DUP1 ISZERO DUP1 ISZERO PUSH3 0x105 JUMPI RETURNDATASIZE PUSH1 0x0 DUP1 RETURNDATACOPY RETURNDATASIZE PUSH1 0x0 REVERT JUMPDEST POP SWAP1 POP PUSH1 0x0 DUP2 SWAP1 DUP1 PUSH1 0x1 DUP2 SLOAD ADD DUP1 DUP3 SSTORE DUP1 SWAP2 POP POP PUSH1 0x1 SWAP1 SUB SWAP1 PUSH1 0x0 MSTORE PUSH1 0x20 PUSH1 0x0 KECCAK256 ADD PUSH1 0x0 SWAP1 SWAP2 SWAP1 SWAP2 SWAP1 SWAP2 PUSH2 0x100 EXP DUP2 SLOAD DUP2 PUSH20 0xFFFFFFFFFFFFFFFFFFFFFFFFFFFFFFFFFFFFFFFF MUL NOT AND SWAP1 DUP4 PUSH20 0xFFFFFFFFFFFFFFFFFFFFFFFFFFFFFFFFFFFFFFFF AND MUL OR SWAP1 SSTORE POP POP POP POP POP POP POP JUMP JUMPDEST PUSH1 0x0 DUP1 PUSH1 0x1 PUSH1 0x0 DUP1 SLOAD SWAP1 POP PUSH3 0x18A SWAP2 SWAP1 PUSH3 0x4FA JUMP JUMPDEST DUP2 SLOAD DUP2 LT PUSH3 0x19E JUMPI PUSH3 0x19D PUSH3 0x535 JUMP JUMPDEST JUMPDEST SWAP1 PUSH1 0x0 MSTORE PUSH1 0x20 PUSH1 0x0 KECCAK256 ADD PUSH1 0x0 SWAP1 SLOAD SWAP1 PUSH2 0x100 EXP SWAP1 DIV PUSH20 0xFFFFFFFFFFFFFFFFFFFFFFFFFFFFFFFFFFFFFFFF AND SWAP1 POP SWAP1 JUMP JUMPDEST PUSH1 0x0 DUP2 DUP2 SLOAD DUP2 LT PUSH3 0x1DF JUMPI PUSH1 0x0 DUP1 REVERT JUMPDEST SWAP1 PUSH1 0x0 MSTORE PUSH1 0x20 PUSH1 0x0 KECCAK256 ADD PUSH1 0x0 SWAP2 POP SLOAD SWAP1 PUSH2 0x100 EXP SWAP1 DIV PUSH20 0xFFFFFFFFFFFFFFFFFFFFFFFFFFFFFFFFFFFFFFFF AND DUP2 JUMP JUMPDEST PUSH2 0x8F6 DUP1 PUSH3 0x565 DUP4 CODECOPY ADD SWAP1 JUMP JUMPDEST PUSH1 0x0 DUP1 REVERT JUMPDEST PUSH1 0x0 DUP1 REVERT JUMPDEST PUSH1 0x0 DUP1 REVERT JUMPDEST PUSH1 0x0 DUP1 REVERT JUMPDEST PUSH1 0x0 DUP1 REVERT JUMPDEST PUSH1 0x0 DUP1 DUP4 PUSH1 0x1F DUP5 ADD SLT PUSH3 0x24E JUMPI PUSH3 0x24D PUSH3 0x226 JUMP JUMPDEST JUMPDEST DUP3 CALLDATALOAD SWAP1 POP PUSH8 0xFFFFFFFFFFFFFFFF DUP2 GT ISZERO PUSH3 0x26E JUMPI PUSH3 0x26D PUSH3 0x22B JUMP JUMPDEST JUMPDEST PUSH1 0x20 DUP4 ADD SWAP2 POP DUP4 PUSH1 0x1 DUP3 MUL DUP4 ADD GT ISZERO PUSH3 0x28D JUMPI PUSH3 0x28C PUSH3 0x230 JUMP JUMPDEST JUMPDEST SWAP3 POP SWAP3 SWAP1 POP JUMP JUMPDEST PUSH1 0x0 DUP2 SWAP1 POP SWAP2 SWAP1 POP JUMP JUMPDEST PUSH3 0x2A9 DUP2 PUSH3 0x294 JUMP JUMPDEST DUP2 EQ PUSH3 0x2B5 JUMPI PUSH1 0x0 DUP1 REVERT JUMPDEST POP JUMP JUMPDEST PUSH1 0x0 DUP2 CALLDATALOAD SWAP1 POP PUSH3 0x2C9 DUP2 PUSH3 0x29E JUMP JUMPDEST SWAP3 SWAP2 POP POP JUMP JUMPDEST PUSH1 0x0 DUP1 PUSH1 0x0 DUP1 PUSH1 0x0 PUSH1 0x60 DUP7 DUP9 SUB SLT ISZERO PUSH3 0x2EE JUMPI PUSH3 0x2ED PUSH3 0x21C JUMP JUMPDEST JUMPDEST PUSH1 0x0 DUP7 ADD CALLDATALOAD PUSH8 0xFFFFFFFFFFFFFFFF DUP2 GT ISZERO PUSH3 0x30F JUMPI PUSH3 0x30E PUSH3 0x221 JUMP JUMPDEST JUMPDEST PUSH3 0x31D DUP9 DUP3 DUP10 ADD PUSH3 0x235 JUMP JUMPDEST SWAP6 POP SWAP6 POP POP PUSH1 0x20 DUP7 ADD CALLDATALOAD PUSH8 0xFFFFFFFFFFFFFFFF DUP2 GT ISZERO PUSH3 0x343 JUMPI PUSH3 0x342 PUSH3 0x221 JUMP JUMPDEST JUMPDEST PUSH3 0x351 DUP9 DUP3 DUP10 ADD PUSH3 0x235 JUMP JUMPDEST SWAP4 POP SWAP4 POP POP PUSH1 0x40 PUSH3 0x366 DUP9 DUP3 DUP10 ADD PUSH3 0x2B8 JUMP JUMPDEST SWAP2 POP POP SWAP3 SWAP6 POP SWAP3 SWAP6 SWAP1 SWAP4 POP JUMP JUMPDEST PUSH1 0x0 PUSH20 0xFFFFFFFFFFFFFFFFFFFFFFFFFFFFFFFFFFFFFFFF DUP3 AND SWAP1 POP SWAP2 SWAP1 POP JUMP JUMPDEST PUSH1 0x0 PUSH3 0x3A0 DUP3 PUSH3 0x373 JUMP JUMPDEST SWAP1 POP SWAP2 SWAP1 POP JUMP JUMPDEST PUSH3 0x3B2 DUP2 PUSH3 0x393 JUMP JUMPDEST DUP3 MSTORE POP POP JUMP JUMPDEST PUSH1 0x0 PUSH1 0x20 DUP3 ADD SWAP1 POP PUSH3 0x3CF PUSH1 0x0 DUP4 ADD DUP5 PUSH3 0x3A7 JUMP JUMPDEST SWAP3 SWAP2 POP POP JUMP JUMPDEST PUSH1 0x0 PUSH1 0x20 DUP3 DUP5 SUB SLT ISZERO PUSH3 0x3EE JUMPI PUSH3 0x3ED PUSH3 0x21C JUMP JUMPDEST JUMPDEST PUSH1 0x0 PUSH3 0x3FE DUP5 DUP3 DUP6 ADD PUSH3 0x2B8 JUMP JUMPDEST SWAP2 POP POP SWAP3 SWAP2 POP POP JUMP JUMPDEST PUSH1 0x0 DUP3 DUP3 MSTORE PUSH1 0x20 DUP3 ADD SWAP1 POP SWAP3 SWAP2 POP POP JUMP JUMPDEST DUP3 DUP2 DUP4 CALLDATACOPY PUSH1 0x0 DUP4 DUP4 ADD MSTORE POP POP POP JUMP JUMPDEST PUSH1 0x0 PUSH1 0x1F NOT PUSH1 0x1F DUP4 ADD AND SWAP1 POP SWAP2 SWAP1 POP JUMP JUMPDEST PUSH1 0x0 PUSH3 0x446 DUP4 DUP6 PUSH3 0x407 JUMP JUMPDEST SWAP4 POP PUSH3 0x455 DUP4 DUP6 DUP5 PUSH3 0x418 JUMP JUMPDEST PUSH3 0x460 DUP4 PUSH3 0x427 JUMP JUMPDEST DUP5 ADD SWAP1 POP SWAP4 SWAP3 POP POP POP JUMP JUMPDEST PUSH3 0x476 DUP2 PUSH3 0x294 JUMP JUMPDEST DUP3 MSTORE POP POP JUMP JUMPDEST PUSH1 0x0 PUSH1 0x60 DUP3 ADD SWAP1 POP DUP2 DUP2 SUB PUSH1 0x0 DUP4 ADD MSTORE PUSH3 0x499 DUP2 DUP8 DUP10 PUSH3 0x438 JUMP JUMPDEST SWAP1 POP DUP2 DUP2 SUB PUSH1 0x20 DUP4 ADD MSTORE PUSH3 0x4B0 DUP2 DUP6 DUP8 PUSH3 0x438 JUMP JUMPDEST SWAP1 POP PUSH3 0x4C1 PUSH1 0x40 DUP4 ADD DUP5 PUSH3 0x46B JUMP JUMPDEST SWAP7 SWAP6 POP POP POP POP POP POP JUMP JUMPDEST PUSH32 0x4E487B7100000000000000000000000000000000000000000000000000000000 PUSH1 0x0 MSTORE PUSH1 0x11 PUSH1 0x4 MSTORE PUSH1 0x24 PUSH1 0x0 REVERT JUMPDEST PUSH1 0x0 PUSH3 0x507 DUP3 PUSH3 0x294 JUMP JUMPDEST SWAP2 POP PUSH3 0x514 DUP4 PUSH3 0x294 JUMP JUMPDEST SWAP3 POP DUP3 DUP3 LT ISZERO PUSH3 0x52A JUMPI PUSH3 0x529 PUSH3 0x4CB JUMP JUMPDEST JUMPDEST DUP3 DUP3 SUB SWAP1 POP SWAP3 SWAP2 POP POP JUMP JUMPDEST PUSH32 0x4E487B7100000000000000000000000000000000000000000000000000000000 PUSH1 0x0 MSTORE PUSH1 0x32 PUSH1 0x4 MSTORE PUSH1 0x24 PUSH1 0x0 REVERT INVALID PUSH1 0x80 PUSH1 0x40 MSTORE CALLVALUE DUP1 ISZERO PUSH3 0x11 JUMPI PUSH1 0x0 DUP1 REVERT JUMPDEST POP PUSH1 0x40 MLOAD PUSH3 0x8F6 CODESIZE SUB DUP1 PUSH3 0x8F6 DUP4 CODECOPY DUP2 DUP2 ADD PUSH1 0x40 MSTORE DUP2 ADD SWAP1 PUSH3 0x37 SWAP2 SWAP1 PUSH3 0x301 JUMP JUMPDEST DUP3 PUSH1 0x0 SWAP1 DUP1 MLOAD SWAP1 PUSH1 0x20 ADD SWAP1 PUSH3 0x4F SWAP3 SWAP2 SWAP1 PUSH3 0x79 JUMP JUMPDEST POP DUP2 PUSH1 0x1 SWAP1 DUP1 MLOAD SWAP1 PUSH1 0x20 ADD SWAP1 PUSH3 0x68 SWAP3 SWAP2 SWAP1 PUSH3 0x79 JUMP JUMPDEST POP DUP1 PUSH1 0x2 DUP2 SWAP1 SSTORE POP POP POP POP PUSH3 0x400 JUMP JUMPDEST DUP3 DUP1 SLOAD PUSH3 0x87 SWAP1 PUSH3 0x3CA JUMP JUMPDEST SWAP1 PUSH1 0x0 MSTORE PUSH1 0x20 PUSH1 0x0 KECCAK256 SWAP1 PUSH1 0x1F ADD PUSH1 0x20 SWAP1 DIV DUP2 ADD SWAP3 DUP3 PUSH3 0xAB JUMPI PUSH1 0x0 DUP6 SSTORE PUSH3 0xF7 JUMP JUMPDEST DUP3 PUSH1 0x1F LT PUSH3 0xC6 JUMPI DUP1 MLOAD PUSH1 0xFF NOT AND DUP4 DUP1 ADD OR DUP6 SSTORE PUSH3 0xF7 JUMP JUMPDEST DUP3 DUP1 ADD PUSH1 0x1 ADD DUP6 SSTORE DUP3 ISZERO PUSH3 0xF7 JUMPI SWAP2 DUP3 ADD JUMPDEST DUP3 DUP2 GT ISZERO PUSH3 0xF6 JUMPI DUP3 MLOAD DUP3 SSTORE SWAP2 PUSH1 0x20 ADD SWAP2 SWAP1 PUSH1 0x1 ADD SWAP1 PUSH3 0xD9 JUMP JUMPDEST JUMPDEST POP SWAP1 POP PUSH3 0x106 SWAP2 SWAP1 PUSH3 0x10A JUMP JUMPDEST POP SWAP1 JUMP JUMPDEST JUMPDEST DUP1 DUP3 GT ISZERO PUSH3 0x125 JUMPI PUSH1 0x0 DUP2 PUSH1 0x0 SWAP1 SSTORE POP PUSH1 0x1 ADD PUSH3 0x10B JUMP JUMPDEST POP SWAP1 JUMP JUMPDEST PUSH1 0x0 PUSH1 0x40 MLOAD SWAP1 POP SWAP1 JUMP JUMPDEST PUSH1 0x0 DUP1 REVERT JUMPDEST PUSH1 0x0 DUP1 REVERT JUMPDEST PUSH1 0x0 DUP1 REVERT JUMPDEST PUSH1 0x0 DUP1 REVERT JUMPDEST PUSH1 0x0 PUSH1 0x1F NOT PUSH1 0x1F DUP4 ADD AND SWAP1 POP SWAP2 SWAP1 POP JUMP JUMPDEST PUSH32 0x4E487B7100000000000000000000000000000000000000000000000000000000 PUSH1 0x0 MSTORE PUSH1 0x41 PUSH1 0x4 MSTORE PUSH1 0x24 PUSH1 0x0 REVERT JUMPDEST PUSH3 0x192 DUP3 PUSH3 0x147 JUMP JUMPDEST DUP2 ADD DUP2 DUP2 LT PUSH8 0xFFFFFFFFFFFFFFFF DUP3 GT OR ISZERO PUSH3 0x1B4 JUMPI PUSH3 0x1B3 PUSH3 0x158 JUMP JUMPDEST JUMPDEST DUP1 PUSH1 0x40 MSTORE POP POP POP JUMP JUMPDEST PUSH1 0x0 PUSH3 0x1C9 PUSH3 0x129 JUMP JUMPDEST SWAP1 POP PUSH3 0x1D7 DUP3 DUP3 PUSH3 0x187 JUMP JUMPDEST SWAP2 SWAP1 POP JUMP JUMPDEST PUSH1 0x0 PUSH8 0xFFFFFFFFFFFFFFFF DUP3 GT ISZERO PUSH3 0x1FA JUMPI PUSH3 0x1F9 PUSH3 0x158 JUMP JUMPDEST JUMPDEST PUSH3 0x205 DUP3 PUSH3 0x147 JUMP JUMPDEST SWAP1 POP PUSH1 0x20 DUP2 ADD SWAP1 POP SWAP2 SWAP1 POP JUMP JUMPDEST PUSH1 0x0 JUMPDEST DUP4 DUP2 LT ISZERO PUSH3 0x232 JUMPI DUP1 DUP3 ADD MLOAD DUP2 DUP5 ADD MSTORE PUSH1 0x20 DUP2 ADD SWAP1 POP PUSH3 0x215 JUMP JUMPDEST DUP4 DUP2 GT ISZERO PUSH3 0x242 JUMPI PUSH1 0x0 DUP5 DUP5 ADD MSTORE JUMPDEST POP POP POP POP JUMP JUMPDEST PUSH1 0x0 PUSH3 0x25F PUSH3 0x259 DUP5 PUSH3 0x1DC JUMP JUMPDEST PUSH3 0x1BD JUMP JUMPDEST SWAP1 POP DUP3 DUP2 MSTORE PUSH1 0x20 DUP2 ADD DUP5 DUP5 DUP5 ADD GT ISZERO PUSH3 0x27E JUMPI PUSH3 0x27D PUSH3 0x142 JUMP JUMPDEST JUMPDEST PUSH3 0x28B DUP5 DUP3 DUP6 PUSH3 0x212 JUMP JUMPDEST POP SWAP4 SWAP3 POP POP POP JUMP JUMPDEST PUSH1 0x0 DUP3 PUSH1 0x1F DUP4 ADD SLT PUSH3 0x2AB JUMPI PUSH3 0x2AA PUSH3 0x13D JUMP JUMPDEST JUMPDEST DUP2 MLOAD PUSH3 0x2BD DUP5 DUP3 PUSH1 0x20 DUP7 ADD PUSH3 0x248 JUMP JUMPDEST SWAP2 POP POP SWAP3 SWAP2 POP POP JUMP JUMPDEST PUSH1 0x0 DUP2 SWAP1 POP SWAP2 SWAP1 POP JUMP JUMPDEST PUSH3 0x2DB DUP2 PUSH3 0x2C6 JUMP JUMPDEST DUP2 EQ PUSH3 0x2E7 JUMPI PUSH1 0x0 DUP1 REVERT JUMPDEST POP JUMP JUMPDEST PUSH1 0x0 DUP2 MLOAD SWAP1 POP PUSH3 0x2FB DUP2 PUSH3 0x2D0 JUMP JUMPDEST SWAP3 SWAP2 POP POP JUMP JUMPDEST PUSH1 0x0 DUP1 PUSH1 0x0 PUSH1 0x60 DUP5 DUP7 SUB SLT ISZERO PUSH3 0x31D JUMPI PUSH3 0x31C PUSH3 0x133 JUMP JUMPDEST JUMPDEST PUSH1 0x0 DUP5 ADD MLOAD PUSH8 0xFFFFFFFFFFFFFFFF DUP2 GT ISZERO PUSH3 0x33E JUMPI PUSH3 0x33D PUSH3 0x138 JUMP JUMPDEST JUMPDEST PUSH3 0x34C DUP7 DUP3 DUP8 ADD PUSH3 0x293 JUMP JUMPDEST SWAP4 POP POP PUSH1 0x20 DUP5 ADD MLOAD PUSH8 0xFFFFFFFFFFFFFFFF DUP2 GT ISZERO PUSH3 0x370 JUMPI PUSH3 0x36F PUSH3 0x138 JUMP JUMPDEST JUMPDEST PUSH3 0x37E DUP7 DUP3 DUP8 ADD PUSH3 0x293 JUMP JUMPDEST SWAP3 POP POP PUSH1 0x40 PUSH3 0x391 DUP7 DUP3 DUP8 ADD PUSH3 0x2EA JUMP JUMPDEST SWAP2 POP POP SWAP3 POP SWAP3 POP SWAP3 JUMP JUMPDEST PUSH32 0x4E487B7100000000000000000000000000000000000000000000000000000000 PUSH1 0x0 MSTORE PUSH1 0x22 PUSH1 0x4 MSTORE PUSH1 0x24 PUSH1 0x0 REVERT JUMPDEST PUSH1 0x0 PUSH1 0x2 DUP3 DIV SWAP1 POP PUSH1 0x1 DUP3 AND DUP1 PUSH3 0x3E3 JUMPI PUSH1 0x7F DUP3 AND SWAP2 POP JUMPDEST PUSH1 0x20 DUP3 LT DUP2 EQ ISZERO PUSH3 0x3FA JUMPI PUSH3 0x3F9 PUSH3 0x39B JUMP JUMPDEST JUMPDEST POP SWAP2 SWAP1 POP JUMP JUMPDEST PUSH2 0x4E6 DUP1 PUSH3 0x410 PUSH1 0x0 CODECOPY PUSH1 0x0 RETURN INVALID PUSH1 0x80 PUSH1 0x40 MSTORE CALLVALUE DUP1 ISZERO PUSH2 0x10 JUMPI PUSH1 0x0 DUP1 REVERT JUMPDEST POP PUSH1 0x4 CALLDATASIZE LT PUSH2 0x4C JUMPI PUSH1 0x0 CALLDATALOAD PUSH1 0xE0 SHR DUP1 PUSH4 0x3FA4F245 EQ PUSH2 0x51 JUMPI DUP1 PUSH4 0x4051DDAC EQ PUSH2 0x6F JUMPI DUP1 PUSH4 0x6BB3471A EQ PUSH2 0x8F JUMPI DUP1 PUSH4 0xEE7A3B8E EQ PUSH2 0xAD JUMPI JUMPDEST PUSH1 0x0 DUP1 REVERT JUMPDEST PUSH2 0x59 PUSH2 0xCB JUMP JUMPDEST PUSH1 0x40 MLOAD PUSH2 0x66 SWAP2 SWAP1 PUSH2 0x334 JUMP JUMPDEST PUSH1 0x40 MLOAD DUP1 SWAP2 SUB SWAP1 RETURN JUMPDEST PUSH2 0x77 PUSH2 0xD1 JUMP JUMPDEST PUSH1 0x40 MLOAD PUSH2 0x86 SWAP4 SWAP3 SWAP2 SWAP1 PUSH2 0x3E8 JUMP JUMPDEST PUSH1 0x40 MLOAD DUP1 SWAP2 SUB SWAP1 RETURN JUMPDEST PUSH2 0x97 PUSH2 0x1FF JUMP JUMPDEST PUSH1 0x40 MLOAD PUSH2 0xA4 SWAP2 SWAP1 PUSH2 0x42D JUMP JUMPDEST PUSH1 0x40 MLOAD DUP1 SWAP2 SUB SWAP1 RETURN JUMPDEST PUSH2 0xB5 PUSH2 0x28D JUMP JUMPDEST PUSH1 0x40 MLOAD PUSH2 0xC2 SWAP2 SWAP1 PUSH2 0x42D JUMP JUMPDEST PUSH1 0x40 MLOAD DUP1 SWAP2 SUB SWAP1 RETURN JUMPDEST PUSH1 0x2 SLOAD DUP2 JUMP JUMPDEST PUSH1 0x60 DUP1 PUSH1 0x0 DUP1 PUSH1 0x1 PUSH1 0x2 SLOAD DUP3 DUP1 SLOAD PUSH2 0xE8 SWAP1 PUSH2 0x47E JUMP JUMPDEST DUP1 PUSH1 0x1F ADD PUSH1 0x20 DUP1 SWAP2 DIV MUL PUSH1 0x20 ADD PUSH1 0x40 MLOAD SWAP1 DUP2 ADD PUSH1 0x40 MSTORE DUP1 SWAP3 SWAP2 SWAP1 DUP2 DUP2 MSTORE PUSH1 0x20 ADD DUP3 DUP1 SLOAD PUSH2 0x114 SWAP1 PUSH2 0x47E JUMP JUMPDEST DUP1 ISZERO PUSH2 0x161 JUMPI DUP1 PUSH1 0x1F LT PUSH2 0x136 JUMPI PUSH2 0x100 DUP1 DUP4 SLOAD DIV MUL DUP4 MSTORE SWAP2 PUSH1 0x20 ADD SWAP2 PUSH2 0x161 JUMP JUMPDEST DUP3 ADD SWAP2 SWAP1 PUSH1 0x0 MSTORE PUSH1 0x20 PUSH1 0x0 KECCAK256 SWAP1 JUMPDEST DUP2 SLOAD DUP2 MSTORE SWAP1 PUSH1 0x1 ADD SWAP1 PUSH1 0x20 ADD DUP1 DUP4 GT PUSH2 0x144 JUMPI DUP3 SWAP1 SUB PUSH1 0x1F AND DUP3 ADD SWAP2 JUMPDEST POP POP POP POP POP SWAP3 POP DUP2 DUP1 SLOAD PUSH2 0x174 SWAP1 PUSH2 0x47E JUMP JUMPDEST DUP1 PUSH1 0x1F ADD PUSH1 0x20 DUP1 SWAP2 DIV MUL PUSH1 0x20 ADD PUSH1 0x40 MLOAD SWAP1 DUP2 ADD PUSH1 0x40 MSTORE DUP1 SWAP3 SWAP2 SWAP1 DUP2 DUP2 MSTORE PUSH1 0x20 ADD DUP3 DUP1 SLOAD PUSH2 0x1A0 SWAP1 PUSH2 0x47E JUMP JUMPDEST DUP1 ISZERO PUSH2 0x1ED JUMPI DUP1 PUSH1 0x1F LT PUSH2 0x1C2 JUMPI PUSH2 0x100 DUP1 DUP4 SLOAD DIV MUL DUP4 MSTORE SWAP2 PUSH1 0x20 ADD SWAP2 PUSH2 0x1ED JUMP JUMPDEST DUP3 ADD SWAP2 SWAP1 PUSH1 0x0 MSTORE PUSH1 0x20 PUSH1 0x0 KECCAK256 SWAP1 JUMPDEST DUP2 SLOAD DUP2 MSTORE SWAP1 PUSH1 0x1 ADD SWAP1 PUSH1 0x20 ADD DUP1 DUP4 GT PUSH2 0x1D0 JUMPI DUP3 SWAP1 SUB PUSH1 0x1F AND DUP3 ADD SWAP2 JUMPDEST POP POP POP POP POP SWAP2 POP SWAP3 POP SWAP3 POP SWAP3 POP SWAP1 SWAP2 SWAP3 JUMP JUMPDEST PUSH1 0x0 DUP1 SLOAD PUSH2 0x20C SWAP1 PUSH2 0x47E JUMP JUMPDEST DUP1 PUSH1 0x1F ADD PUSH1 0x20 DUP1 SWAP2 DIV MUL PUSH1 0x20 ADD PUSH1 0x40 MLOAD SWAP1 DUP2 ADD PUSH1 0x40 MSTORE DUP1 SWAP3 SWAP2 SWAP1 DUP2 DUP2 MSTORE PUSH1 0x20 ADD DUP3 DUP1 SLOAD PUSH2 0x238 SWAP1 PUSH2 0x47E JUMP JUMPDEST DUP1 ISZERO PUSH2 0x285 JUMPI DUP1 PUSH1 0x1F LT PUSH2 0x25A JUMPI PUSH2 0x100 DUP1 DUP4 SLOAD DIV MUL DUP4 MSTORE SWAP2 PUSH1 0x20 ADD SWAP2 PUSH2 0x285 JUMP JUMPDEST DUP3 ADD SWAP2 SWAP1 PUSH1 0x0 MSTORE PUSH1 0x20 PUSH1 0x0 KECCAK256 SWAP1 JUMPDEST DUP2 SLOAD DUP2 MSTORE SWAP1 PUSH1 0x1 ADD SWAP1 PUSH1 0x20 ADD DUP1 DUP4 GT PUSH2 0x268 JUMPI DUP3 SWAP1 SUB PUSH1 0x1F AND DUP3 ADD SWAP2 JUMPDEST POP POP POP POP POP DUP2 JUMP JUMPDEST PUSH1 0x1 DUP1 SLOAD PUSH2 0x29A SWAP1 PUSH2 0x47E JUMP JUMPDEST DUP1 PUSH1 0x1F ADD PUSH1 0x20 DUP1 SWAP2 DIV MUL PUSH1 0x20 ADD PUSH1 0x40 MLOAD SWAP1 DUP2 ADD PUSH1 0x40 MSTORE DUP1 SWAP3 SWAP2 SWAP1 DUP2 DUP2 MSTORE PUSH1 0x20 ADD DUP3 DUP1 SLOAD PUSH2 0x2C6 SWAP1 PUSH2 0x47E JUMP JUMPDEST DUP1 ISZERO PUSH2 0x313 JUMPI DUP1 PUSH1 0x1F LT PUSH2 0x2E8 JUMPI PUSH2 0x100 DUP1 DUP4 SLOAD DIV MUL DUP4 MSTORE SWAP2 PUSH1 0x20 ADD SWAP2 PUSH2 0x313 JUMP JUMPDEST DUP3 ADD SWAP2 SWAP1 PUSH1 0x0 MSTORE PUSH1 0x20 PUSH1 0x0 KECCAK256 SWAP1 JUMPDEST DUP2 SLOAD DUP2 MSTORE SWAP1 PUSH1 0x1 ADD SWAP1 PUSH1 0x20 ADD DUP1 DUP4 GT PUSH2 0x2F6 JUMPI DUP3 SWAP1 SUB PUSH1 0x1F AND DUP3 ADD SWAP2 JUMPDEST POP POP POP POP POP DUP2 JUMP JUMPDEST PUSH1 0x0 DUP2 SWAP1 POP SWAP2 SWAP1 POP JUMP JUMPDEST PUSH2 0x32E DUP2 PUSH2 0x31B JUMP JUMPDEST DUP3 MSTORE POP POP JUMP JUMPDEST PUSH1 0x0 PUSH1 0x20 DUP3 ADD SWAP1 POP PUSH2 0x349 PUSH1 0x0 DUP4 ADD DUP5 PUSH2 0x325 JUMP JUMPDEST SWAP3 SWAP2 POP POP JUMP JUMPDEST PUSH1 0x0 DUP2 MLOAD SWAP1 POP SWAP2 SWAP1 POP JUMP JUMPDEST PUSH1 0x0 DUP3 DUP3 MSTORE PUSH1 0x20 DUP3 ADD SWAP1 POP SWAP3 SWAP2 POP POP JUMP JUMPDEST PUSH1 0x0 JUMPDEST DUP4 DUP2 LT ISZERO PUSH2 0x389 JUMPI DUP1 DUP3 ADD MLOAD DUP2 DUP5 ADD MSTORE PUSH1 0x20 DUP2 ADD SWAP1 POP PUSH2 0x36E JUMP JUMPDEST DUP4 DUP2 GT ISZERO PUSH2 0x398 JUMPI PUSH1 0x0 DUP5 DUP5 ADD MSTORE JUMPDEST POP POP POP POP JUMP JUMPDEST PUSH1 0x0 PUSH1 0x1F NOT PUSH1 0x1F DUP4 ADD AND SWAP1 POP SWAP2 SWAP1 POP JUMP JUMPDEST PUSH1 0x0 PUSH2 0x3BA DUP3 PUSH2 0x34F JUMP JUMPDEST PUSH2 0x3C4 DUP2 DUP6 PUSH2 0x35A JUMP JUMPDEST SWAP4 POP PUSH2 0x3D4 DUP2 DUP6 PUSH1 0x20 DUP7 ADD PUSH2 0x36B JUMP JUMPDEST PUSH2 0x3DD DUP2 PUSH2 0x39E JUMP JUMPDEST DUP5 ADD SWAP2 POP POP SWAP3 SWAP2 POP POP JUMP JUMPDEST PUSH1 0x0 PUSH1 0x60 DUP3 ADD SWAP1 POP DUP2 DUP2 SUB PUSH1 0x0 DUP4 ADD MSTORE PUSH2 0x402 DUP2 DUP7 PUSH2 0x3AF JUMP JUMPDEST SWAP1 POP DUP2 DUP2 SUB PUSH1 0x20 DUP4 ADD MSTORE PUSH2 0x416 DUP2 DUP6 PUSH2 0x3AF JUMP JUMPDEST SWAP1 POP PUSH2 0x425 PUSH1 0x40 DUP4 ADD DUP5 PUSH2 0x325 JUMP JUMPDEST SWAP5 SWAP4 POP POP POP POP JUMP JUMPDEST PUSH1 0x0 PUSH1 0x20 DUP3 ADD SWAP1 POP DUP2 DUP2 SUB PUSH1 0x0 DUP4 ADD MSTORE PUSH2 0x447 DUP2 DUP5 PUSH2 0x3AF JUMP JUMPDEST SWAP1 POP SWAP3 SWAP2 POP POP JUMP JUMPDEST PUSH32 0x4E487B7100000000000000000000000000000000000000000000000000000000 PUSH1 0x0 MSTORE PUSH1 0x22 PUSH1 0x4 MSTORE PUSH1 0x24 PUSH1 0x0 REVERT JUMPDEST PUSH1 0x0 PUSH1 0x2 DUP3 DIV SWAP1 POP PUSH1 0x1 DUP3 AND DUP1 PUSH2 0x496 JUMPI PUSH1 0x7F DUP3 AND SWAP2 POP JUMPDEST PUSH1 0x20 DUP3 LT DUP2 EQ ISZERO PUSH2 0x4AA JUMPI PUSH2 0x4A9 PUSH2 0x44F JUMP JUMPDEST JUMPDEST POP SWAP2 SWAP1 POP JUMP INVALID LOG2 PUSH5 0x6970667358 0x22 SLT KECCAK256 PUSH8 0x202E59B5FD3A21E2 DUP1 COINBASE 0xC3 0x1F 0xE9 0xCC 0xC3 0xAC SWAP12 0xEF PUSH26 0x1950D2B8052BF4E1466B5ED264736F6C634300080B0033A26469 PUSH17 0x6673582212206E23DB0240C657DD774C1D DUP13 DUP6 0xAE 0xB1 0xC2 0x4A EXTCODEHASH 0x2B 0xD1 LOG0 DUP1 SWAP10 SWAP11 PUSH10 0x7A84311CB488C464736F PUSH13 0x634300080B0033000000000000 "},"gasEstimates":{"creation":{"codeDepositCost":"745600","executionCost":"779","totalCost":"746379"},"external":{"buy(string,string,uint256)":"infinite","deploy(uint256)":"4978","get()":"infinite"}},"methodIdentifiers":{"buy(string,string,uint256)":"0c4ba8d6","deploy(uint256)":"a5e38751","get()":"6d4ce63c"}},"storageLayout":{"storage":[{"astId":4,"contract":"Auctioninfo.sol:Factory","label":"deploy","offset":0,"slot":"0","type":"t_array(t_address)dyn_storage"}],"types":{"t_address":{"encoding":"inplace","label":"address","numberOfBytes":"20"},"t_array(t_address)dyn_storage":{"base":"t_address","encoding":"dynamic_array","label":"address[]","numberOfBytes":"32"}}},"userdoc":{"kind":"user","methods":{},"version":1}}